{
	"contracts/AttestationRegistry.sol": {
		"AttestationRegistry": {
			"abi": [
				{
					"anonymous": false,
					"inputs": [
						{
							"indexed": true,
							"internalType": "bytes32",
							"name": "uuid",
							"type": "bytes32"
						},
						{
							"indexed": true,
							"internalType": "uint256",
							"name": "index",
							"type": "uint256"
						},
						{
							"indexed": false,
							"internalType": "bytes",
							"name": "schema",
							"type": "bytes"
						},
						{
							"indexed": false,
							"internalType": "address",
							"name": "attester",
							"type": "address"
						}
					],
					"name": "Registered",
					"type": "event"
				},
				{
					"inputs": [
						{
							"internalType": "bytes32",
							"name": "",
							"type": "bytes32"
						}
					],
					"name": "_registry",
					"outputs": [
						{
							"internalType": "bytes32",
							"name": "uuid",
							"type": "bytes32"
						},
						{
							"internalType": "uint256",
							"name": "index",
							"type": "uint256"
						},
						{
							"internalType": "bytes",
							"name": "schema",
							"type": "bytes"
						}
					],
					"stateMutability": "view",
					"type": "function"
				},
				{
					"inputs": [
						{
							"internalType": "bytes32",
							"name": "uuid",
							"type": "bytes32"
						}
					],
					"name": "getAS",
					"outputs": [
						{
							"components": [
								{
									"internalType": "bytes32",
									"name": "uuid",
									"type": "bytes32"
								},
								{
									"internalType": "uint256",
									"name": "index",
									"type": "uint256"
								},
								{
									"internalType": "bytes",
									"name": "schema",
									"type": "bytes"
								}
							],
							"internalType": "struct IAttestationRegistry.ASRecord",
							"name": "",
							"type": "tuple"
						}
					],
					"stateMutability": "view",
					"type": "function"
				},
				{
					"inputs": [
						{
							"internalType": "bytes",
							"name": "schema",
							"type": "bytes"
						}
					],
					"name": "register",
					"outputs": [
						{
							"internalType": "bytes32",
							"name": "",
							"type": "bytes32"
						}
					],
					"stateMutability": "nonpayable",
					"type": "function"
				}
			],
			"devdoc": {
				"kind": "dev",
				"methods": {},
				"version": 1
			},
			"evm": {
				"assembly": "    /* \"contracts/AttestationRegistry.sol\":189:1357  contract AttestationRegistry is IAttestationRegistry {... */\n  mstore(0x40, 0x80)\n  callvalue\n  dup1\n  iszero\n  tag_1\n  jumpi\n  0x00\n  dup1\n  revert\ntag_1:\n  pop\n  dataSize(sub_0)\n  dup1\n  dataOffset(sub_0)\n  0x00\n  codecopy\n  0x00\n  return\nstop\n\nsub_0: assembly {\n        /* \"contracts/AttestationRegistry.sol\":189:1357  contract AttestationRegistry is IAttestationRegistry {... */\n      mstore(0x40, 0x80)\n      callvalue\n      dup1\n      iszero\n      tag_1\n      jumpi\n      0x00\n      dup1\n      revert\n    tag_1:\n      pop\n      jumpi(tag_2, lt(calldatasize, 0x04))\n      shr(0xe0, calldataload(0x00))\n      dup1\n      0x72487d52\n      eq\n      tag_3\n      jumpi\n      dup1\n      0x82fbdc9c\n      eq\n      tag_4\n      jumpi\n      dup1\n      0xfa6f1dc3\n      eq\n      tag_5\n      jumpi\n    tag_2:\n      0x00\n      dup1\n      revert\n        /* \"contracts/AttestationRegistry.sol\":1202:1355  function getAS(bytes32 uuid)... */\n    tag_3:\n      tag_6\n      0x04\n      dup1\n      calldatasize\n      sub\n      dup2\n      add\n      swap1\n      tag_7\n      swap2\n      swap1\n      tag_8\n      jump\t// in\n    tag_7:\n      tag_9\n      jump\t// in\n    tag_6:\n      mload(0x40)\n      tag_10\n      swap2\n      swap1\n      tag_11\n      jump\t// in\n    tag_10:\n      mload(0x40)\n      dup1\n      swap2\n      sub\n      swap1\n      return\n        /* \"contracts/AttestationRegistry.sol\":468:1047  function register(bytes calldata schema)... */\n    tag_4:\n      tag_12\n      0x04\n      dup1\n      calldatasize\n      sub\n      dup2\n      add\n      swap1\n      tag_13\n      swap2\n      swap1\n      tag_14\n      jump\t// in\n    tag_13:\n      tag_15\n      jump\t// in\n    tag_12:\n      mload(0x40)\n      tag_16\n      swap2\n      swap1\n      tag_17\n      jump\t// in\n    tag_16:\n      mload(0x40)\n      dup1\n      swap2\n      sub\n      swap1\n      return\n        /* \"contracts/AttestationRegistry.sol\":248:293  mapping(bytes32 => ASRecord) public _registry */\n    tag_5:\n      tag_18\n      0x04\n      dup1\n      calldatasize\n      sub\n      dup2\n      add\n      swap1\n      tag_19\n      swap2\n      swap1\n      tag_8\n      jump\t// in\n    tag_19:\n      tag_20\n      jump\t// in\n    tag_18:\n      mload(0x40)\n      tag_21\n      swap4\n      swap3\n      swap2\n      swap1\n      tag_22\n      jump\t// in\n    tag_21:\n      mload(0x40)\n      dup1\n      swap2\n      sub\n      swap1\n      return\n        /* \"contracts/AttestationRegistry.sol\":1202:1355  function getAS(bytes32 uuid)... */\n    tag_9:\n        /* \"contracts/AttestationRegistry.sol\":1295:1310  ASRecord memory */\n      tag_23\n      tag_24\n      jump\t// in\n    tag_23:\n        /* \"contracts/AttestationRegistry.sol\":1333:1342  _registry */\n      0x00\n        /* \"contracts/AttestationRegistry.sol\":1333:1348  _registry[uuid] */\n      dup1\n        /* \"contracts/AttestationRegistry.sol\":1343:1347  uuid */\n      dup4\n        /* \"contracts/AttestationRegistry.sol\":1333:1348  _registry[uuid] */\n      dup2\n      mstore\n      0x20\n      add\n      swap1\n      dup2\n      mstore\n      0x20\n      add\n      0x00\n      keccak256\n        /* \"contracts/AttestationRegistry.sol\":1326:1348  return _registry[uuid] */\n      mload(0x40)\n      dup1\n      0x60\n      add\n      0x40\n      mstore\n      swap1\n      dup2\n      0x00\n      dup3\n      add\n      sload\n      dup2\n      mstore\n      0x20\n      add\n      0x01\n      dup3\n      add\n      sload\n      dup2\n      mstore\n      0x20\n      add\n      0x02\n      dup3\n      add\n      dup1\n      sload\n      tag_26\n      swap1\n      tag_27\n      jump\t// in\n    tag_26:\n      dup1\n      0x1f\n      add\n      0x20\n      dup1\n      swap2\n      div\n      mul\n      0x20\n      add\n      mload(0x40)\n      swap1\n      dup2\n      add\n      0x40\n      mstore\n      dup1\n      swap3\n      swap2\n      swap1\n      dup2\n      dup2\n      mstore\n      0x20\n      add\n      dup3\n      dup1\n      sload\n      tag_28\n      swap1\n      tag_27\n      jump\t// in\n    tag_28:\n      dup1\n      iszero\n      tag_29\n      jumpi\n      dup1\n      0x1f\n      lt\n      tag_30\n      jumpi\n      0x0100\n      dup1\n      dup4\n      sload\n      div\n      mul\n      dup4\n      mstore\n      swap2\n      0x20\n      add\n      swap2\n      jump(tag_29)\n    tag_30:\n      dup3\n      add\n      swap2\n      swap1\n      0x00\n      mstore\n      keccak256(0x00, 0x20)\n      swap1\n    tag_31:\n      dup2\n      sload\n      dup2\n      mstore\n      swap1\n      0x01\n      add\n      swap1\n      0x20\n      add\n      dup1\n      dup4\n      gt\n      tag_31\n      jumpi\n      dup3\n      swap1\n      sub\n      0x1f\n      and\n      dup3\n      add\n      swap2\n    tag_29:\n      pop\n      pop\n      pop\n      pop\n      pop\n      dup2\n      mstore\n      pop\n      pop\n      swap1\n      pop\n        /* \"contracts/AttestationRegistry.sol\":1202:1355  function getAS(bytes32 uuid)... */\n      swap2\n      swap1\n      pop\n      jump\t// out\n        /* \"contracts/AttestationRegistry.sol\":468:1047  function register(bytes calldata schema)... */\n    tag_15:\n        /* \"contracts/AttestationRegistry.sol\":560:567  bytes32 */\n      0x00\n        /* \"contracts/AttestationRegistry.sol\":583:596  uint256 index */\n      dup1\n        /* \"contracts/AttestationRegistry.sol\":601:609  _asCount */\n      0x01\n      0x00\n        /* \"contracts/AttestationRegistry.sol\":599:609  ++_asCount */\n      dup2\n      sload\n      tag_33\n      swap1\n      tag_34\n      jump\t// in\n    tag_33:\n      swap2\n      swap1\n      pop\n      dup2\n      swap1\n      sstore\n        /* \"contracts/AttestationRegistry.sol\":583:609  uint256 index = ++_asCount */\n      swap1\n      pop\n        /* \"contracts/AttestationRegistry.sol\":620:644  ASRecord memory asRecord */\n      0x00\n        /* \"contracts/AttestationRegistry.sol\":647:751  ASRecord({... */\n      mload(0x40)\n      dup1\n      0x60\n      add\n      0x40\n      mstore\n      dup1\n        /* \"contracts/Constants.sol\":147:148  0 */\n      0x00\n        /* \"contracts/AttestationRegistry.sol\":676:686  EMPTY_UUID */\n      dup1\n      shl\n        /* \"contracts/AttestationRegistry.sol\":647:751  ASRecord({... */\n      dup2\n      mstore\n      0x20\n      add\n        /* \"contracts/AttestationRegistry.sol\":707:712  index */\n      dup4\n        /* \"contracts/AttestationRegistry.sol\":647:751  ASRecord({... */\n      dup2\n      mstore\n      0x20\n      add\n        /* \"contracts/AttestationRegistry.sol\":734:740  schema */\n      dup7\n      dup7\n        /* \"contracts/AttestationRegistry.sol\":647:751  ASRecord({... */\n      dup1\n      dup1\n      0x1f\n      add\n      0x20\n      dup1\n      swap2\n      div\n      mul\n      0x20\n      add\n      mload(0x40)\n      swap1\n      dup2\n      add\n      0x40\n      mstore\n      dup1\n      swap4\n      swap3\n      swap2\n      swap1\n      dup2\n      dup2\n      mstore\n      0x20\n      add\n      dup4\n      dup4\n      dup1\n      dup3\n      dup5\n      calldatacopy\n      0x00\n      dup2\n      dup5\n      add\n      mstore\n      not(0x1f)\n      0x1f\n      dup3\n      add\n      and\n      swap1\n      pop\n      dup1\n      dup4\n      add\n      swap3\n      pop\n      pop\n      pop\n      pop\n      pop\n      pop\n      pop\n      dup2\n      mstore\n      pop\n        /* \"contracts/AttestationRegistry.sol\":620:751  ASRecord memory asRecord = ASRecord({... */\n      swap1\n      pop\n        /* \"contracts/AttestationRegistry.sol\":762:774  bytes32 uuid */\n      0x00\n        /* \"contracts/AttestationRegistry.sol\":777:795  _getUUID(asRecord) */\n      tag_35\n        /* \"contracts/AttestationRegistry.sol\":786:794  asRecord */\n      dup3\n        /* \"contracts/AttestationRegistry.sol\":777:785  _getUUID */\n      tag_36\n        /* \"contracts/AttestationRegistry.sol\":777:795  _getUUID(asRecord) */\n      jump\t// in\n    tag_35:\n        /* \"contracts/AttestationRegistry.sol\":762:795  bytes32 uuid = _getUUID(asRecord) */\n      swap1\n      pop\n        /* \"contracts/Constants.sol\":147:148  0 */\n      0x00\n        /* \"contracts/AttestationRegistry.sol\":833:843  EMPTY_UUID */\n      dup1\n      shl\n        /* \"contracts/AttestationRegistry.sol\":809:818  _registry */\n      0x00\n        /* \"contracts/AttestationRegistry.sol\":809:824  _registry[uuid] */\n      dup1\n        /* \"contracts/AttestationRegistry.sol\":819:823  uuid */\n      dup4\n        /* \"contracts/AttestationRegistry.sol\":809:824  _registry[uuid] */\n      dup2\n      mstore\n      0x20\n      add\n      swap1\n      dup2\n      mstore\n      0x20\n      add\n      0x00\n      keccak256\n        /* \"contracts/AttestationRegistry.sol\":809:829  _registry[uuid].uuid */\n      0x00\n      add\n      sload\n        /* \"contracts/AttestationRegistry.sol\":809:843  _registry[uuid].uuid != EMPTY_UUID */\n      eq\n        /* \"contracts/AttestationRegistry.sol\":805:893  if (_registry[uuid].uuid != EMPTY_UUID) {... */\n      tag_37\n      jumpi\n        /* \"contracts/AttestationRegistry.sol\":859:882  revert(\"AlreadyExists\") */\n      mload(0x40)\n      0x08c379a000000000000000000000000000000000000000000000000000000000\n      dup2\n      mstore\n      0x04\n      add\n      tag_38\n      swap1\n      tag_39\n      jump\t// in\n    tag_38:\n      mload(0x40)\n      dup1\n      swap2\n      sub\n      swap1\n      revert\n        /* \"contracts/AttestationRegistry.sol\":805:893  if (_registry[uuid].uuid != EMPTY_UUID) {... */\n    tag_37:\n        /* \"contracts/AttestationRegistry.sol\":919:923  uuid */\n      dup1\n        /* \"contracts/AttestationRegistry.sol\":903:911  asRecord */\n      dup3\n        /* \"contracts/AttestationRegistry.sol\":903:916  asRecord.uuid */\n      0x00\n      add\n        /* \"contracts/AttestationRegistry.sol\":903:923  asRecord.uuid = uuid */\n      dup2\n      dup2\n      mstore\n      pop\n      pop\n        /* \"contracts/AttestationRegistry.sol\":951:959  asRecord */\n      dup2\n        /* \"contracts/AttestationRegistry.sol\":933:942  _registry */\n      0x00\n        /* \"contracts/AttestationRegistry.sol\":933:948  _registry[uuid] */\n      dup1\n        /* \"contracts/AttestationRegistry.sol\":943:947  uuid */\n      dup4\n        /* \"contracts/AttestationRegistry.sol\":933:948  _registry[uuid] */\n      dup2\n      mstore\n      0x20\n      add\n      swap1\n      dup2\n      mstore\n      0x20\n      add\n      0x00\n      keccak256\n        /* \"contracts/AttestationRegistry.sol\":933:959  _registry[uuid] = asRecord */\n      0x00\n      dup3\n      add\n      mload\n      dup2\n      0x00\n      add\n      sstore\n      0x20\n      dup3\n      add\n      mload\n      dup2\n      0x01\n      add\n      sstore\n      0x40\n      dup3\n      add\n      mload\n      dup2\n      0x02\n      add\n      swap1\n      dup1\n      mload\n      swap1\n      0x20\n      add\n      swap1\n      tag_40\n      swap3\n      swap2\n      swap1\n      tag_41\n      jump\t// in\n    tag_40:\n      pop\n      swap1\n      pop\n      pop\n        /* \"contracts/AttestationRegistry.sol\":992:997  index */\n      dup3\n        /* \"contracts/AttestationRegistry.sol\":986:990  uuid */\n      dup2\n        /* \"contracts/AttestationRegistry.sol\":975:1018  Registered(uuid, index, schema, msg.sender) */\n      0xbf98b1465a8e9be3ba9c4c4961cade00b8ee16522d23f19068efa38f2769f141\n        /* \"contracts/AttestationRegistry.sol\":999:1005  schema */\n      dup9\n      dup9\n        /* \"contracts/AttestationRegistry.sol\":1007:1017  msg.sender */\n      caller\n        /* \"contracts/AttestationRegistry.sol\":975:1018  Registered(uuid, index, schema, msg.sender) */\n      mload(0x40)\n      tag_42\n      swap4\n      swap3\n      swap2\n      swap1\n      tag_43\n      jump\t// in\n    tag_42:\n      mload(0x40)\n      dup1\n      swap2\n      sub\n      swap1\n      log3\n        /* \"contracts/AttestationRegistry.sol\":1036:1040  uuid */\n      dup1\n        /* \"contracts/AttestationRegistry.sol\":1029:1040  return uuid */\n      swap4\n      pop\n      pop\n      pop\n      pop\n        /* \"contracts/AttestationRegistry.sol\":468:1047  function register(bytes calldata schema)... */\n      swap3\n      swap2\n      pop\n      pop\n      jump\t// out\n        /* \"contracts/AttestationRegistry.sol\":248:293  mapping(bytes32 => ASRecord) public _registry */\n    tag_20:\n      mstore(0x20, 0x00)\n      dup1\n      0x00\n      mstore\n      keccak256(0x00, 0x40)\n      0x00\n      swap2\n      pop\n      swap1\n      pop\n      dup1\n      0x00\n      add\n      sload\n      swap1\n      dup1\n      0x01\n      add\n      sload\n      swap1\n      dup1\n      0x02\n      add\n      dup1\n      sload\n      tag_44\n      swap1\n      tag_27\n      jump\t// in\n    tag_44:\n      dup1\n      0x1f\n      add\n      0x20\n      dup1\n      swap2\n      div\n      mul\n      0x20\n      add\n      mload(0x40)\n      swap1\n      dup2\n      add\n      0x40\n      mstore\n      dup1\n      swap3\n      swap2\n      swap1\n      dup2\n      dup2\n      mstore\n      0x20\n      add\n      dup3\n      dup1\n      sload\n      tag_45\n      swap1\n      tag_27\n      jump\t// in\n    tag_45:\n      dup1\n      iszero\n      tag_46\n      jumpi\n      dup1\n      0x1f\n      lt\n      tag_47\n      jumpi\n      0x0100\n      dup1\n      dup4\n      sload\n      div\n      mul\n      dup4\n      mstore\n      swap2\n      0x20\n      add\n      swap2\n      jump(tag_46)\n    tag_47:\n      dup3\n      add\n      swap2\n      swap1\n      0x00\n      mstore\n      keccak256(0x00, 0x20)\n      swap1\n    tag_48:\n      dup2\n      sload\n      dup2\n      mstore\n      swap1\n      0x01\n      add\n      swap1\n      0x20\n      add\n      dup1\n      dup4\n      gt\n      tag_48\n      jumpi\n      dup3\n      swap1\n      sub\n      0x1f\n      and\n      dup3\n      add\n      swap2\n    tag_46:\n      pop\n      pop\n      pop\n      pop\n      pop\n      swap1\n      pop\n      dup4\n      jump\t// out\n        /* \"contracts/AttestationRegistry.sol\":1053:1196  function _getUUID(ASRecord memory asRecord) private pure returns (bytes32) {... */\n    tag_36:\n        /* \"contracts/AttestationRegistry.sol\":1119:1126  bytes32 */\n      0x00\n        /* \"contracts/AttestationRegistry.sol\":1172:1180  asRecord */\n      dup2\n        /* \"contracts/AttestationRegistry.sol\":1172:1187  asRecord.schema */\n      0x40\n      add\n      mload\n        /* \"contracts/AttestationRegistry.sol\":1155:1188  abi.encodePacked(asRecord.schema) */\n      add(0x20, mload(0x40))\n      tag_50\n      swap2\n      swap1\n      tag_51\n      jump\t// in\n    tag_50:\n      mload(0x40)\n      0x20\n      dup2\n      dup4\n      sub\n      sub\n      dup2\n      mstore\n      swap1\n      0x40\n      mstore\n        /* \"contracts/AttestationRegistry.sol\":1145:1189  keccak256(abi.encodePacked(asRecord.schema)) */\n      dup1\n      mload\n      swap1\n      0x20\n      add\n      keccak256\n        /* \"contracts/AttestationRegistry.sol\":1138:1189  return keccak256(abi.encodePacked(asRecord.schema)) */\n      swap1\n      pop\n        /* \"contracts/AttestationRegistry.sol\":1053:1196  function _getUUID(ASRecord memory asRecord) private pure returns (bytes32) {... */\n      swap2\n      swap1\n      pop\n      jump\t// out\n    tag_24:\n      mload(0x40)\n      dup1\n      0x60\n      add\n      0x40\n      mstore\n      dup1\n      0x00\n      dup1\n      not\n      and\n      dup2\n      mstore\n      0x20\n      add\n      0x00\n      dup2\n      mstore\n      0x20\n      add\n      0x60\n      dup2\n      mstore\n      pop\n      swap1\n      jump\t// out\n    tag_41:\n      dup3\n      dup1\n      sload\n      tag_52\n      swap1\n      tag_27\n      jump\t// in\n    tag_52:\n      swap1\n      0x00\n      mstore\n      keccak256(0x00, 0x20)\n      swap1\n      0x1f\n      add\n      0x20\n      swap1\n      div\n      dup2\n      add\n      swap3\n      dup3\n      tag_54\n      jumpi\n      0x00\n      dup6\n      sstore\n      jump(tag_53)\n    tag_54:\n      dup3\n      0x1f\n      lt\n      tag_55\n      jumpi\n      dup1\n      mload\n      not(0xff)\n      and\n      dup4\n      dup1\n      add\n      or\n      dup6\n      sstore\n      jump(tag_53)\n    tag_55:\n      dup3\n      dup1\n      add\n      0x01\n      add\n      dup6\n      sstore\n      dup3\n      iszero\n      tag_53\n      jumpi\n      swap2\n      dup3\n      add\n    tag_56:\n      dup3\n      dup2\n      gt\n      iszero\n      tag_57\n      jumpi\n      dup3\n      mload\n      dup3\n      sstore\n      swap2\n      0x20\n      add\n      swap2\n      swap1\n      0x01\n      add\n      swap1\n      jump(tag_56)\n    tag_57:\n    tag_53:\n      pop\n      swap1\n      pop\n      tag_58\n      swap2\n      swap1\n      tag_59\n      jump\t// in\n    tag_58:\n      pop\n      swap1\n      jump\t// out\n    tag_59:\n    tag_60:\n      dup1\n      dup3\n      gt\n      iszero\n      tag_61\n      jumpi\n      0x00\n      dup2\n      0x00\n      swap1\n      sstore\n      pop\n      0x01\n      add\n      jump(tag_60)\n    tag_61:\n      pop\n      swap1\n      jump\t// out\n        /* \"#utility.yul\":7:146   */\n    tag_63:\n      0x00\n        /* \"#utility.yul\":91:97   */\n      dup2\n        /* \"#utility.yul\":78:98   */\n      calldataload\n        /* \"#utility.yul\":69:98   */\n      swap1\n      pop\n        /* \"#utility.yul\":107:140   */\n      tag_65\n        /* \"#utility.yul\":134:139   */\n      dup2\n        /* \"#utility.yul\":107:140   */\n      tag_66\n      jump\t// in\n    tag_65:\n        /* \"#utility.yul\":59:146   */\n      swap3\n      swap2\n      pop\n      pop\n      jump\t// out\n        /* \"#utility.yul\":165:516   */\n    tag_67:\n      0x00\n      dup1\n        /* \"#utility.yul\":282:285   */\n      dup4\n        /* \"#utility.yul\":275:279   */\n      0x1f\n        /* \"#utility.yul\":267:273   */\n      dup5\n        /* \"#utility.yul\":263:280   */\n      add\n        /* \"#utility.yul\":259:286   */\n      slt\n        /* \"#utility.yul\":249:251   */\n      tag_69\n      jumpi\n        /* \"#utility.yul\":300:301   */\n      0x00\n        /* \"#utility.yul\":297:298   */\n      dup1\n        /* \"#utility.yul\":290:302   */\n      revert\n        /* \"#utility.yul\":249:251   */\n    tag_69:\n        /* \"#utility.yul\":336:342   */\n      dup3\n        /* \"#utility.yul\":323:343   */\n      calldataload\n        /* \"#utility.yul\":313:343   */\n      swap1\n      pop\n        /* \"#utility.yul\":366:384   */\n      0xffffffffffffffff\n        /* \"#utility.yul\":358:364   */\n      dup2\n        /* \"#utility.yul\":355:385   */\n      gt\n        /* \"#utility.yul\":352:354   */\n      iszero\n      tag_70\n      jumpi\n        /* \"#utility.yul\":398:399   */\n      0x00\n        /* \"#utility.yul\":395:396   */\n      dup1\n        /* \"#utility.yul\":388:400   */\n      revert\n        /* \"#utility.yul\":352:354   */\n    tag_70:\n        /* \"#utility.yul\":435:439   */\n      0x20\n        /* \"#utility.yul\":427:433   */\n      dup4\n        /* \"#utility.yul\":423:440   */\n      add\n        /* \"#utility.yul\":411:440   */\n      swap2\n      pop\n        /* \"#utility.yul\":489:492   */\n      dup4\n        /* \"#utility.yul\":481:485   */\n      0x01\n        /* \"#utility.yul\":473:479   */\n      dup3\n        /* \"#utility.yul\":469:486   */\n      mul\n        /* \"#utility.yul\":459:467   */\n      dup4\n        /* \"#utility.yul\":455:487   */\n      add\n        /* \"#utility.yul\":452:493   */\n      gt\n        /* \"#utility.yul\":449:451   */\n      iszero\n      tag_71\n      jumpi\n        /* \"#utility.yul\":506:507   */\n      0x00\n        /* \"#utility.yul\":503:504   */\n      dup1\n        /* \"#utility.yul\":496:508   */\n      revert\n        /* \"#utility.yul\":449:451   */\n    tag_71:\n        /* \"#utility.yul\":239:516   */\n      swap3\n      pop\n      swap3\n      swap1\n      pop\n      jump\t// out\n        /* \"#utility.yul\":522:784   */\n    tag_8:\n      0x00\n        /* \"#utility.yul\":630:632   */\n      0x20\n        /* \"#utility.yul\":618:627   */\n      dup3\n        /* \"#utility.yul\":609:616   */\n      dup5\n        /* \"#utility.yul\":605:628   */\n      sub\n        /* \"#utility.yul\":601:633   */\n      slt\n        /* \"#utility.yul\":598:600   */\n      iszero\n      tag_73\n      jumpi\n        /* \"#utility.yul\":646:647   */\n      0x00\n        /* \"#utility.yul\":643:644   */\n      dup1\n        /* \"#utility.yul\":636:648   */\n      revert\n        /* \"#utility.yul\":598:600   */\n    tag_73:\n        /* \"#utility.yul\":689:690   */\n      0x00\n        /* \"#utility.yul\":714:767   */\n      tag_74\n        /* \"#utility.yul\":759:766   */\n      dup5\n        /* \"#utility.yul\":750:756   */\n      dup3\n        /* \"#utility.yul\":739:748   */\n      dup6\n        /* \"#utility.yul\":735:757   */\n      add\n        /* \"#utility.yul\":714:767   */\n      tag_63\n      jump\t// in\n    tag_74:\n        /* \"#utility.yul\":704:767   */\n      swap2\n      pop\n        /* \"#utility.yul\":660:777   */\n      pop\n        /* \"#utility.yul\":588:784   */\n      swap3\n      swap2\n      pop\n      pop\n      jump\t// out\n        /* \"#utility.yul\":790:1183   */\n    tag_14:\n      0x00\n      dup1\n        /* \"#utility.yul\":917:919   */\n      0x20\n        /* \"#utility.yul\":905:914   */\n      dup4\n        /* \"#utility.yul\":896:903   */\n      dup6\n        /* \"#utility.yul\":892:915   */\n      sub\n        /* \"#utility.yul\":888:920   */\n      slt\n        /* \"#utility.yul\":885:887   */\n      iszero\n      tag_76\n      jumpi\n        /* \"#utility.yul\":933:934   */\n      0x00\n        /* \"#utility.yul\":930:931   */\n      dup1\n        /* \"#utility.yul\":923:935   */\n      revert\n        /* \"#utility.yul\":885:887   */\n    tag_76:\n        /* \"#utility.yul\":1004:1005   */\n      0x00\n        /* \"#utility.yul\":993:1002   */\n      dup4\n        /* \"#utility.yul\":989:1006   */\n      add\n        /* \"#utility.yul\":976:1007   */\n      calldataload\n        /* \"#utility.yul\":1034:1052   */\n      0xffffffffffffffff\n        /* \"#utility.yul\":1026:1032   */\n      dup2\n        /* \"#utility.yul\":1023:1053   */\n      gt\n        /* \"#utility.yul\":1020:1022   */\n      iszero\n      tag_77\n      jumpi\n        /* \"#utility.yul\":1066:1067   */\n      0x00\n        /* \"#utility.yul\":1063:1064   */\n      dup1\n        /* \"#utility.yul\":1056:1068   */\n      revert\n        /* \"#utility.yul\":1020:1022   */\n    tag_77:\n        /* \"#utility.yul\":1102:1166   */\n      tag_78\n        /* \"#utility.yul\":1158:1165   */\n      dup6\n        /* \"#utility.yul\":1149:1155   */\n      dup3\n        /* \"#utility.yul\":1138:1147   */\n      dup7\n        /* \"#utility.yul\":1134:1156   */\n      add\n        /* \"#utility.yul\":1102:1166   */\n      tag_67\n      jump\t// in\n    tag_78:\n        /* \"#utility.yul\":1084:1166   */\n      swap3\n      pop\n      swap3\n      pop\n        /* \"#utility.yul\":947:1176   */\n      pop\n        /* \"#utility.yul\":875:1183   */\n      swap3\n      pop\n      swap3\n      swap1\n      pop\n      jump\t// out\n        /* \"#utility.yul\":1189:1307   */\n    tag_79:\n        /* \"#utility.yul\":1276:1300   */\n      tag_81\n        /* \"#utility.yul\":1294:1299   */\n      dup2\n        /* \"#utility.yul\":1276:1300   */\n      tag_82\n      jump\t// in\n    tag_81:\n        /* \"#utility.yul\":1271:1274   */\n      dup3\n        /* \"#utility.yul\":1264:1301   */\n      mstore\n        /* \"#utility.yul\":1254:1307   */\n      pop\n      pop\n      jump\t// out\n        /* \"#utility.yul\":1313:1421   */\n    tag_83:\n        /* \"#utility.yul\":1390:1414   */\n      tag_85\n        /* \"#utility.yul\":1408:1413   */\n      dup2\n        /* \"#utility.yul\":1390:1414   */\n      tag_86\n      jump\t// in\n    tag_85:\n        /* \"#utility.yul\":1385:1388   */\n      dup3\n        /* \"#utility.yul\":1378:1415   */\n      mstore\n        /* \"#utility.yul\":1368:1421   */\n      pop\n      pop\n      jump\t// out\n        /* \"#utility.yul\":1427:1545   */\n    tag_87:\n        /* \"#utility.yul\":1514:1538   */\n      tag_89\n        /* \"#utility.yul\":1532:1537   */\n      dup2\n        /* \"#utility.yul\":1514:1538   */\n      tag_86\n      jump\t// in\n    tag_89:\n        /* \"#utility.yul\":1509:1512   */\n      dup3\n        /* \"#utility.yul\":1502:1539   */\n      mstore\n        /* \"#utility.yul\":1492:1545   */\n      pop\n      pop\n      jump\t// out\n        /* \"#utility.yul\":1573:1874   */\n    tag_90:\n      0x00\n        /* \"#utility.yul\":1690:1760   */\n      tag_92\n        /* \"#utility.yul\":1753:1759   */\n      dup4\n        /* \"#utility.yul\":1748:1751   */\n      dup6\n        /* \"#utility.yul\":1690:1760   */\n      tag_93\n      jump\t// in\n    tag_92:\n        /* \"#utility.yul\":1683:1760   */\n      swap4\n      pop\n        /* \"#utility.yul\":1770:1813   */\n      tag_94\n        /* \"#utility.yul\":1806:1812   */\n      dup4\n        /* \"#utility.yul\":1801:1804   */\n      dup6\n        /* \"#utility.yul\":1794:1799   */\n      dup5\n        /* \"#utility.yul\":1770:1813   */\n      tag_95\n      jump\t// in\n    tag_94:\n        /* \"#utility.yul\":1838:1867   */\n      tag_96\n        /* \"#utility.yul\":1860:1866   */\n      dup4\n        /* \"#utility.yul\":1838:1867   */\n      tag_97\n      jump\t// in\n    tag_96:\n        /* \"#utility.yul\":1833:1836   */\n      dup5\n        /* \"#utility.yul\":1829:1868   */\n      add\n        /* \"#utility.yul\":1822:1868   */\n      swap1\n      pop\n        /* \"#utility.yul\":1673:1874   */\n      swap4\n      swap3\n      pop\n      pop\n      pop\n      jump\t// out\n        /* \"#utility.yul\":1880:2220   */\n    tag_98:\n      0x00\n        /* \"#utility.yul\":1984:2022   */\n      tag_100\n        /* \"#utility.yul\":2016:2021   */\n      dup3\n        /* \"#utility.yul\":1984:2022   */\n      tag_101\n      jump\t// in\n    tag_100:\n        /* \"#utility.yul\":2038:2098   */\n      tag_102\n        /* \"#utility.yul\":2091:2097   */\n      dup2\n        /* \"#utility.yul\":2086:2089   */\n      dup6\n        /* \"#utility.yul\":2038:2098   */\n      tag_103\n      jump\t// in\n    tag_102:\n        /* \"#utility.yul\":2031:2098   */\n      swap4\n      pop\n        /* \"#utility.yul\":2107:2159   */\n      tag_104\n        /* \"#utility.yul\":2152:2158   */\n      dup2\n        /* \"#utility.yul\":2147:2150   */\n      dup6\n        /* \"#utility.yul\":2140:2144   */\n      0x20\n        /* \"#utility.yul\":2133:2138   */\n      dup7\n        /* \"#utility.yul\":2129:2145   */\n      add\n        /* \"#utility.yul\":2107:2159   */\n      tag_105\n      jump\t// in\n    tag_104:\n        /* \"#utility.yul\":2184:2213   */\n      tag_106\n        /* \"#utility.yul\":2206:2212   */\n      dup2\n        /* \"#utility.yul\":2184:2213   */\n      tag_97\n      jump\t// in\n    tag_106:\n        /* \"#utility.yul\":2179:2182   */\n      dup5\n        /* \"#utility.yul\":2175:2214   */\n      add\n        /* \"#utility.yul\":2168:2214   */\n      swap2\n      pop\n        /* \"#utility.yul\":1960:2220   */\n      pop\n      swap3\n      swap2\n      pop\n      pop\n      jump\t// out\n        /* \"#utility.yul\":2226:2586   */\n    tag_107:\n      0x00\n        /* \"#utility.yul\":2340:2378   */\n      tag_109\n        /* \"#utility.yul\":2372:2377   */\n      dup3\n        /* \"#utility.yul\":2340:2378   */\n      tag_101\n      jump\t// in\n    tag_109:\n        /* \"#utility.yul\":2394:2464   */\n      tag_110\n        /* \"#utility.yul\":2457:2463   */\n      dup2\n        /* \"#utility.yul\":2452:2455   */\n      dup6\n        /* \"#utility.yul\":2394:2464   */\n      tag_93\n      jump\t// in\n    tag_110:\n        /* \"#utility.yul\":2387:2464   */\n      swap4\n      pop\n        /* \"#utility.yul\":2473:2525   */\n      tag_111\n        /* \"#utility.yul\":2518:2524   */\n      dup2\n        /* \"#utility.yul\":2513:2516   */\n      dup6\n        /* \"#utility.yul\":2506:2510   */\n      0x20\n        /* \"#utility.yul\":2499:2504   */\n      dup7\n        /* \"#utility.yul\":2495:2511   */\n      add\n        /* \"#utility.yul\":2473:2525   */\n      tag_105\n      jump\t// in\n    tag_111:\n        /* \"#utility.yul\":2550:2579   */\n      tag_112\n        /* \"#utility.yul\":2572:2578   */\n      dup2\n        /* \"#utility.yul\":2550:2579   */\n      tag_97\n      jump\t// in\n    tag_112:\n        /* \"#utility.yul\":2545:2548   */\n      dup5\n        /* \"#utility.yul\":2541:2580   */\n      add\n        /* \"#utility.yul\":2534:2580   */\n      swap2\n      pop\n        /* \"#utility.yul\":2316:2586   */\n      pop\n      swap3\n      swap2\n      pop\n      pop\n      jump\t// out\n        /* \"#utility.yul\":2592:2965   */\n    tag_113:\n      0x00\n        /* \"#utility.yul\":2724:2762   */\n      tag_115\n        /* \"#utility.yul\":2756:2761   */\n      dup3\n        /* \"#utility.yul\":2724:2762   */\n      tag_101\n      jump\t// in\n    tag_115:\n        /* \"#utility.yul\":2778:2866   */\n      tag_116\n        /* \"#utility.yul\":2859:2865   */\n      dup2\n        /* \"#utility.yul\":2854:2857   */\n      dup6\n        /* \"#utility.yul\":2778:2866   */\n      tag_117\n      jump\t// in\n    tag_116:\n        /* \"#utility.yul\":2771:2866   */\n      swap4\n      pop\n        /* \"#utility.yul\":2875:2927   */\n      tag_118\n        /* \"#utility.yul\":2920:2926   */\n      dup2\n        /* \"#utility.yul\":2915:2918   */\n      dup6\n        /* \"#utility.yul\":2908:2912   */\n      0x20\n        /* \"#utility.yul\":2901:2906   */\n      dup7\n        /* \"#utility.yul\":2897:2913   */\n      add\n        /* \"#utility.yul\":2875:2927   */\n      tag_105\n      jump\t// in\n    tag_118:\n        /* \"#utility.yul\":2952:2958   */\n      dup1\n        /* \"#utility.yul\":2947:2950   */\n      dup5\n        /* \"#utility.yul\":2943:2959   */\n      add\n        /* \"#utility.yul\":2936:2959   */\n      swap2\n      pop\n        /* \"#utility.yul\":2700:2965   */\n      pop\n      swap3\n      swap2\n      pop\n      pop\n      jump\t// out\n        /* \"#utility.yul\":2971:3337   */\n    tag_119:\n      0x00\n        /* \"#utility.yul\":3134:3201   */\n      tag_121\n        /* \"#utility.yul\":3198:3200   */\n      0x0d\n        /* \"#utility.yul\":3193:3196   */\n      dup4\n        /* \"#utility.yul\":3134:3201   */\n      tag_122\n      jump\t// in\n    tag_121:\n        /* \"#utility.yul\":3127:3201   */\n      swap2\n      pop\n        /* \"#utility.yul\":3210:3303   */\n      tag_123\n        /* \"#utility.yul\":3299:3302   */\n      dup3\n        /* \"#utility.yul\":3210:3303   */\n      tag_124\n      jump\t// in\n    tag_123:\n        /* \"#utility.yul\":3328:3330   */\n      0x20\n        /* \"#utility.yul\":3323:3326   */\n      dup3\n        /* \"#utility.yul\":3319:3331   */\n      add\n        /* \"#utility.yul\":3312:3331   */\n      swap1\n      pop\n        /* \"#utility.yul\":3117:3337   */\n      swap2\n      swap1\n      pop\n      jump\t// out\n        /* \"#utility.yul\":3427:4208   */\n    tag_125:\n      0x00\n        /* \"#utility.yul\":3582:3586   */\n      0x60\n        /* \"#utility.yul\":3577:3580   */\n      dup4\n        /* \"#utility.yul\":3573:3587   */\n      add\n        /* \"#utility.yul\":3669:3673   */\n      0x00\n        /* \"#utility.yul\":3662:3667   */\n      dup4\n        /* \"#utility.yul\":3658:3674   */\n      add\n        /* \"#utility.yul\":3652:3675   */\n      mload\n        /* \"#utility.yul\":3688:3751   */\n      tag_127\n        /* \"#utility.yul\":3745:3749   */\n      0x00\n        /* \"#utility.yul\":3740:3743   */\n      dup7\n        /* \"#utility.yul\":3736:3750   */\n      add\n        /* \"#utility.yul\":3722:3734   */\n      dup3\n        /* \"#utility.yul\":3688:3751   */\n      tag_83\n      jump\t// in\n    tag_127:\n        /* \"#utility.yul\":3597:3761   */\n      pop\n        /* \"#utility.yul\":3844:3848   */\n      0x20\n        /* \"#utility.yul\":3837:3842   */\n      dup4\n        /* \"#utility.yul\":3833:3849   */\n      add\n        /* \"#utility.yul\":3827:3850   */\n      mload\n        /* \"#utility.yul\":3863:3926   */\n      tag_128\n        /* \"#utility.yul\":3920:3924   */\n      0x20\n        /* \"#utility.yul\":3915:3918   */\n      dup7\n        /* \"#utility.yul\":3911:3925   */\n      add\n        /* \"#utility.yul\":3897:3909   */\n      dup3\n        /* \"#utility.yul\":3863:3926   */\n      tag_129\n      jump\t// in\n    tag_128:\n        /* \"#utility.yul\":3771:3936   */\n      pop\n        /* \"#utility.yul\":4020:4024   */\n      0x40\n        /* \"#utility.yul\":4013:4018   */\n      dup4\n        /* \"#utility.yul\":4009:4025   */\n      add\n        /* \"#utility.yul\":4003:4026   */\n      mload\n        /* \"#utility.yul\":4073:4076   */\n      dup5\n        /* \"#utility.yul\":4067:4071   */\n      dup3\n        /* \"#utility.yul\":4063:4077   */\n      sub\n        /* \"#utility.yul\":4056:4060   */\n      0x40\n        /* \"#utility.yul\":4051:4054   */\n      dup7\n        /* \"#utility.yul\":4047:4061   */\n      add\n        /* \"#utility.yul\":4040:4078   */\n      mstore\n        /* \"#utility.yul\":4099:4170   */\n      tag_130\n        /* \"#utility.yul\":4165:4169   */\n      dup3\n        /* \"#utility.yul\":4151:4163   */\n      dup3\n        /* \"#utility.yul\":4099:4170   */\n      tag_98\n      jump\t// in\n    tag_130:\n        /* \"#utility.yul\":4091:4170   */\n      swap2\n      pop\n        /* \"#utility.yul\":3946:4181   */\n      pop\n        /* \"#utility.yul\":4198:4202   */\n      dup1\n        /* \"#utility.yul\":4191:4202   */\n      swap2\n      pop\n        /* \"#utility.yul\":3551:4208   */\n      pop\n      swap3\n      swap2\n      pop\n      pop\n      jump\t// out\n        /* \"#utility.yul\":4214:4322   */\n    tag_129:\n        /* \"#utility.yul\":4291:4315   */\n      tag_132\n        /* \"#utility.yul\":4309:4314   */\n      dup2\n        /* \"#utility.yul\":4291:4315   */\n      tag_133\n      jump\t// in\n    tag_132:\n        /* \"#utility.yul\":4286:4289   */\n      dup3\n        /* \"#utility.yul\":4279:4316   */\n      mstore\n        /* \"#utility.yul\":4269:4322   */\n      pop\n      pop\n      jump\t// out\n        /* \"#utility.yul\":4328:4446   */\n    tag_134:\n        /* \"#utility.yul\":4415:4439   */\n      tag_136\n        /* \"#utility.yul\":4433:4438   */\n      dup2\n        /* \"#utility.yul\":4415:4439   */\n      tag_133\n      jump\t// in\n    tag_136:\n        /* \"#utility.yul\":4410:4413   */\n      dup3\n        /* \"#utility.yul\":4403:4440   */\n      mstore\n        /* \"#utility.yul\":4393:4446   */\n      pop\n      pop\n      jump\t// out\n        /* \"#utility.yul\":4452:4723   */\n    tag_51:\n      0x00\n        /* \"#utility.yul\":4604:4697   */\n      tag_138\n        /* \"#utility.yul\":4693:4696   */\n      dup3\n        /* \"#utility.yul\":4684:4690   */\n      dup5\n        /* \"#utility.yul\":4604:4697   */\n      tag_113\n      jump\t// in\n    tag_138:\n        /* \"#utility.yul\":4597:4697   */\n      swap2\n      pop\n        /* \"#utility.yul\":4714:4717   */\n      dup2\n        /* \"#utility.yul\":4707:4717   */\n      swap1\n      pop\n        /* \"#utility.yul\":4586:4723   */\n      swap3\n      swap2\n      pop\n      pop\n      jump\t// out\n        /* \"#utility.yul\":4729:4951   */\n    tag_17:\n      0x00\n        /* \"#utility.yul\":4860:4862   */\n      0x20\n        /* \"#utility.yul\":4849:4858   */\n      dup3\n        /* \"#utility.yul\":4845:4863   */\n      add\n        /* \"#utility.yul\":4837:4863   */\n      swap1\n      pop\n        /* \"#utility.yul\":4873:4944   */\n      tag_140\n        /* \"#utility.yul\":4941:4942   */\n      0x00\n        /* \"#utility.yul\":4930:4939   */\n      dup4\n        /* \"#utility.yul\":4926:4943   */\n      add\n        /* \"#utility.yul\":4917:4923   */\n      dup5\n        /* \"#utility.yul\":4873:4944   */\n      tag_87\n      jump\t// in\n    tag_140:\n        /* \"#utility.yul\":4827:4951   */\n      swap3\n      swap2\n      pop\n      pop\n      jump\t// out\n        /* \"#utility.yul\":4957:5486   */\n    tag_22:\n      0x00\n        /* \"#utility.yul\":5162:5164   */\n      0x60\n        /* \"#utility.yul\":5151:5160   */\n      dup3\n        /* \"#utility.yul\":5147:5165   */\n      add\n        /* \"#utility.yul\":5139:5165   */\n      swap1\n      pop\n        /* \"#utility.yul\":5175:5246   */\n      tag_142\n        /* \"#utility.yul\":5243:5244   */\n      0x00\n        /* \"#utility.yul\":5232:5241   */\n      dup4\n        /* \"#utility.yul\":5228:5245   */\n      add\n        /* \"#utility.yul\":5219:5225   */\n      dup7\n        /* \"#utility.yul\":5175:5246   */\n      tag_87\n      jump\t// in\n    tag_142:\n        /* \"#utility.yul\":5256:5328   */\n      tag_143\n        /* \"#utility.yul\":5324:5326   */\n      0x20\n        /* \"#utility.yul\":5313:5322   */\n      dup4\n        /* \"#utility.yul\":5309:5327   */\n      add\n        /* \"#utility.yul\":5300:5306   */\n      dup6\n        /* \"#utility.yul\":5256:5328   */\n      tag_134\n      jump\t// in\n    tag_143:\n        /* \"#utility.yul\":5375:5384   */\n      dup2\n        /* \"#utility.yul\":5369:5373   */\n      dup2\n        /* \"#utility.yul\":5365:5385   */\n      sub\n        /* \"#utility.yul\":5360:5362   */\n      0x40\n        /* \"#utility.yul\":5349:5358   */\n      dup4\n        /* \"#utility.yul\":5345:5363   */\n      add\n        /* \"#utility.yul\":5338:5386   */\n      mstore\n        /* \"#utility.yul\":5403:5479   */\n      tag_144\n        /* \"#utility.yul\":5474:5478   */\n      dup2\n        /* \"#utility.yul\":5465:5471   */\n      dup5\n        /* \"#utility.yul\":5403:5479   */\n      tag_107\n      jump\t// in\n    tag_144:\n        /* \"#utility.yul\":5395:5479   */\n      swap1\n      pop\n        /* \"#utility.yul\":5129:5486   */\n      swap5\n      swap4\n      pop\n      pop\n      pop\n      pop\n      jump\t// out\n        /* \"#utility.yul\":5492:5931   */\n    tag_43:\n      0x00\n        /* \"#utility.yul\":5679:5681   */\n      0x40\n        /* \"#utility.yul\":5668:5677   */\n      dup3\n        /* \"#utility.yul\":5664:5682   */\n      add\n        /* \"#utility.yul\":5656:5682   */\n      swap1\n      pop\n        /* \"#utility.yul\":5728:5737   */\n      dup2\n        /* \"#utility.yul\":5722:5726   */\n      dup2\n        /* \"#utility.yul\":5718:5738   */\n      sub\n        /* \"#utility.yul\":5714:5715   */\n      0x00\n        /* \"#utility.yul\":5703:5712   */\n      dup4\n        /* \"#utility.yul\":5699:5716   */\n      add\n        /* \"#utility.yul\":5692:5739   */\n      mstore\n        /* \"#utility.yul\":5756:5842   */\n      tag_146\n        /* \"#utility.yul\":5837:5841   */\n      dup2\n        /* \"#utility.yul\":5828:5834   */\n      dup6\n        /* \"#utility.yul\":5820:5826   */\n      dup8\n        /* \"#utility.yul\":5756:5842   */\n      tag_90\n      jump\t// in\n    tag_146:\n        /* \"#utility.yul\":5748:5842   */\n      swap1\n      pop\n        /* \"#utility.yul\":5852:5924   */\n      tag_147\n        /* \"#utility.yul\":5920:5922   */\n      0x20\n        /* \"#utility.yul\":5909:5918   */\n      dup4\n        /* \"#utility.yul\":5905:5923   */\n      add\n        /* \"#utility.yul\":5896:5902   */\n      dup5\n        /* \"#utility.yul\":5852:5924   */\n      tag_79\n      jump\t// in\n    tag_147:\n        /* \"#utility.yul\":5646:5931   */\n      swap5\n      swap4\n      pop\n      pop\n      pop\n      pop\n      jump\t// out\n        /* \"#utility.yul\":5937:6356   */\n    tag_39:\n      0x00\n        /* \"#utility.yul\":6141:6143   */\n      0x20\n        /* \"#utility.yul\":6130:6139   */\n      dup3\n        /* \"#utility.yul\":6126:6144   */\n      add\n        /* \"#utility.yul\":6118:6144   */\n      swap1\n      pop\n        /* \"#utility.yul\":6190:6199   */\n      dup2\n        /* \"#utility.yul\":6184:6188   */\n      dup2\n        /* \"#utility.yul\":6180:6200   */\n      sub\n        /* \"#utility.yul\":6176:6177   */\n      0x00\n        /* \"#utility.yul\":6165:6174   */\n      dup4\n        /* \"#utility.yul\":6161:6178   */\n      add\n        /* \"#utility.yul\":6154:6201   */\n      mstore\n        /* \"#utility.yul\":6218:6349   */\n      tag_149\n        /* \"#utility.yul\":6344:6348   */\n      dup2\n        /* \"#utility.yul\":6218:6349   */\n      tag_119\n      jump\t// in\n    tag_149:\n        /* \"#utility.yul\":6210:6349   */\n      swap1\n      pop\n        /* \"#utility.yul\":6108:6356   */\n      swap2\n      swap1\n      pop\n      jump\t// out\n        /* \"#utility.yul\":6362:6735   */\n    tag_11:\n      0x00\n        /* \"#utility.yul\":6543:6545   */\n      0x20\n        /* \"#utility.yul\":6532:6541   */\n      dup3\n        /* \"#utility.yul\":6528:6546   */\n      add\n        /* \"#utility.yul\":6520:6546   */\n      swap1\n      pop\n        /* \"#utility.yul\":6592:6601   */\n      dup2\n        /* \"#utility.yul\":6586:6590   */\n      dup2\n        /* \"#utility.yul\":6582:6602   */\n      sub\n        /* \"#utility.yul\":6578:6579   */\n      0x00\n        /* \"#utility.yul\":6567:6576   */\n      dup4\n        /* \"#utility.yul\":6563:6580   */\n      add\n        /* \"#utility.yul\":6556:6603   */\n      mstore\n        /* \"#utility.yul\":6620:6728   */\n      tag_151\n        /* \"#utility.yul\":6723:6727   */\n      dup2\n        /* \"#utility.yul\":6714:6720   */\n      dup5\n        /* \"#utility.yul\":6620:6728   */\n      tag_125\n      jump\t// in\n    tag_151:\n        /* \"#utility.yul\":6612:6728   */\n      swap1\n      pop\n        /* \"#utility.yul\":6510:6735   */\n      swap3\n      swap2\n      pop\n      pop\n      jump\t// out\n        /* \"#utility.yul\":6741:6839   */\n    tag_101:\n      0x00\n        /* \"#utility.yul\":6826:6831   */\n      dup2\n        /* \"#utility.yul\":6820:6832   */\n      mload\n        /* \"#utility.yul\":6810:6832   */\n      swap1\n      pop\n        /* \"#utility.yul\":6799:6839   */\n      swap2\n      swap1\n      pop\n      jump\t// out\n        /* \"#utility.yul\":6845:7003   */\n    tag_103:\n      0x00\n        /* \"#utility.yul\":6952:6958   */\n      dup3\n        /* \"#utility.yul\":6947:6950   */\n      dup3\n        /* \"#utility.yul\":6940:6959   */\n      mstore\n        /* \"#utility.yul\":6992:6996   */\n      0x20\n        /* \"#utility.yul\":6987:6990   */\n      dup3\n        /* \"#utility.yul\":6983:6997   */\n      add\n        /* \"#utility.yul\":6968:6997   */\n      swap1\n      pop\n        /* \"#utility.yul\":6930:7003   */\n      swap3\n      swap2\n      pop\n      pop\n      jump\t// out\n        /* \"#utility.yul\":7009:7177   */\n    tag_93:\n      0x00\n        /* \"#utility.yul\":7126:7132   */\n      dup3\n        /* \"#utility.yul\":7121:7124   */\n      dup3\n        /* \"#utility.yul\":7114:7133   */\n      mstore\n        /* \"#utility.yul\":7166:7170   */\n      0x20\n        /* \"#utility.yul\":7161:7164   */\n      dup3\n        /* \"#utility.yul\":7157:7171   */\n      add\n        /* \"#utility.yul\":7142:7171   */\n      swap1\n      pop\n        /* \"#utility.yul\":7104:7177   */\n      swap3\n      swap2\n      pop\n      pop\n      jump\t// out\n        /* \"#utility.yul\":7183:7330   */\n    tag_117:\n      0x00\n        /* \"#utility.yul\":7321:7324   */\n      dup2\n        /* \"#utility.yul\":7306:7324   */\n      swap1\n      pop\n        /* \"#utility.yul\":7296:7330   */\n      swap3\n      swap2\n      pop\n      pop\n      jump\t// out\n        /* \"#utility.yul\":7336:7505   */\n    tag_122:\n      0x00\n        /* \"#utility.yul\":7454:7460   */\n      dup3\n        /* \"#utility.yul\":7449:7452   */\n      dup3\n        /* \"#utility.yul\":7442:7461   */\n      mstore\n        /* \"#utility.yul\":7494:7498   */\n      0x20\n        /* \"#utility.yul\":7489:7492   */\n      dup3\n        /* \"#utility.yul\":7485:7499   */\n      add\n        /* \"#utility.yul\":7470:7499   */\n      swap1\n      pop\n        /* \"#utility.yul\":7432:7505   */\n      swap3\n      swap2\n      pop\n      pop\n      jump\t// out\n        /* \"#utility.yul\":7511:7607   */\n    tag_82:\n      0x00\n        /* \"#utility.yul\":7577:7601   */\n      tag_158\n        /* \"#utility.yul\":7595:7600   */\n      dup3\n        /* \"#utility.yul\":7577:7601   */\n      tag_159\n      jump\t// in\n    tag_158:\n        /* \"#utility.yul\":7566:7601   */\n      swap1\n      pop\n        /* \"#utility.yul\":7556:7607   */\n      swap2\n      swap1\n      pop\n      jump\t// out\n        /* \"#utility.yul\":7613:7690   */\n    tag_86:\n      0x00\n        /* \"#utility.yul\":7679:7684   */\n      dup2\n        /* \"#utility.yul\":7668:7684   */\n      swap1\n      pop\n        /* \"#utility.yul\":7658:7690   */\n      swap2\n      swap1\n      pop\n      jump\t// out\n        /* \"#utility.yul\":7696:7822   */\n    tag_159:\n      0x00\n        /* \"#utility.yul\":7773:7815   */\n      0xffffffffffffffffffffffffffffffffffffffff\n        /* \"#utility.yul\":7766:7771   */\n      dup3\n        /* \"#utility.yul\":7762:7816   */\n      and\n        /* \"#utility.yul\":7751:7816   */\n      swap1\n      pop\n        /* \"#utility.yul\":7741:7822   */\n      swap2\n      swap1\n      pop\n      jump\t// out\n        /* \"#utility.yul\":7828:7905   */\n    tag_133:\n      0x00\n        /* \"#utility.yul\":7894:7899   */\n      dup2\n        /* \"#utility.yul\":7883:7899   */\n      swap1\n      pop\n        /* \"#utility.yul\":7873:7905   */\n      swap2\n      swap1\n      pop\n      jump\t// out\n        /* \"#utility.yul\":7911:8065   */\n    tag_95:\n        /* \"#utility.yul\":7995:8001   */\n      dup3\n        /* \"#utility.yul\":7990:7993   */\n      dup2\n        /* \"#utility.yul\":7985:7988   */\n      dup4\n        /* \"#utility.yul\":7972:8002   */\n      calldatacopy\n        /* \"#utility.yul\":8057:8058   */\n      0x00\n        /* \"#utility.yul\":8048:8054   */\n      dup4\n        /* \"#utility.yul\":8043:8046   */\n      dup4\n        /* \"#utility.yul\":8039:8055   */\n      add\n        /* \"#utility.yul\":8032:8059   */\n      mstore\n        /* \"#utility.yul\":7962:8065   */\n      pop\n      pop\n      pop\n      jump\t// out\n        /* \"#utility.yul\":8071:8378   */\n    tag_105:\n        /* \"#utility.yul\":8139:8140   */\n      0x00\n        /* \"#utility.yul\":8149:8262   */\n    tag_165:\n        /* \"#utility.yul\":8163:8169   */\n      dup4\n        /* \"#utility.yul\":8160:8161   */\n      dup2\n        /* \"#utility.yul\":8157:8170   */\n      lt\n        /* \"#utility.yul\":8149:8262   */\n      iszero\n      tag_167\n      jumpi\n        /* \"#utility.yul\":8248:8249   */\n      dup1\n        /* \"#utility.yul\":8243:8246   */\n      dup3\n        /* \"#utility.yul\":8239:8250   */\n      add\n        /* \"#utility.yul\":8233:8251   */\n      mload\n        /* \"#utility.yul\":8229:8230   */\n      dup2\n        /* \"#utility.yul\":8224:8227   */\n      dup5\n        /* \"#utility.yul\":8220:8231   */\n      add\n        /* \"#utility.yul\":8213:8252   */\n      mstore\n        /* \"#utility.yul\":8185:8187   */\n      0x20\n        /* \"#utility.yul\":8182:8183   */\n      dup2\n        /* \"#utility.yul\":8178:8188   */\n      add\n        /* \"#utility.yul\":8173:8188   */\n      swap1\n      pop\n        /* \"#utility.yul\":8149:8262   */\n      jump(tag_165)\n    tag_167:\n        /* \"#utility.yul\":8280:8286   */\n      dup4\n        /* \"#utility.yul\":8277:8278   */\n      dup2\n        /* \"#utility.yul\":8274:8287   */\n      gt\n        /* \"#utility.yul\":8271:8273   */\n      iszero\n      tag_168\n      jumpi\n        /* \"#utility.yul\":8360:8361   */\n      0x00\n        /* \"#utility.yul\":8351:8357   */\n      dup5\n        /* \"#utility.yul\":8346:8349   */\n      dup5\n        /* \"#utility.yul\":8342:8358   */\n      add\n        /* \"#utility.yul\":8335:8362   */\n      mstore\n        /* \"#utility.yul\":8271:8273   */\n    tag_168:\n        /* \"#utility.yul\":8120:8378   */\n      pop\n      pop\n      pop\n      pop\n      jump\t// out\n        /* \"#utility.yul\":8384:8704   */\n    tag_27:\n      0x00\n        /* \"#utility.yul\":8465:8466   */\n      0x02\n        /* \"#utility.yul\":8459:8463   */\n      dup3\n        /* \"#utility.yul\":8455:8467   */\n      div\n        /* \"#utility.yul\":8445:8467   */\n      swap1\n      pop\n        /* \"#utility.yul\":8512:8513   */\n      0x01\n        /* \"#utility.yul\":8506:8510   */\n      dup3\n        /* \"#utility.yul\":8502:8514   */\n      and\n        /* \"#utility.yul\":8533:8551   */\n      dup1\n        /* \"#utility.yul\":8523:8525   */\n      tag_170\n      jumpi\n        /* \"#utility.yul\":8589:8593   */\n      0x7f\n        /* \"#utility.yul\":8581:8587   */\n      dup3\n        /* \"#utility.yul\":8577:8594   */\n      and\n        /* \"#utility.yul\":8567:8594   */\n      swap2\n      pop\n        /* \"#utility.yul\":8523:8525   */\n    tag_170:\n        /* \"#utility.yul\":8651:8653   */\n      0x20\n        /* \"#utility.yul\":8643:8649   */\n      dup3\n        /* \"#utility.yul\":8640:8654   */\n      lt\n        /* \"#utility.yul\":8620:8638   */\n      dup2\n        /* \"#utility.yul\":8617:8655   */\n      eq\n        /* \"#utility.yul\":8614:8616   */\n      iszero\n      tag_171\n      jumpi\n        /* \"#utility.yul\":8670:8688   */\n      tag_172\n      tag_173\n      jump\t// in\n    tag_172:\n        /* \"#utility.yul\":8614:8616   */\n    tag_171:\n        /* \"#utility.yul\":8435:8704   */\n      pop\n      swap2\n      swap1\n      pop\n      jump\t// out\n        /* \"#utility.yul\":8710:8943   */\n    tag_34:\n      0x00\n        /* \"#utility.yul\":8772:8796   */\n      tag_175\n        /* \"#utility.yul\":8790:8795   */\n      dup3\n        /* \"#utility.yul\":8772:8796   */\n      tag_133\n      jump\t// in\n    tag_175:\n        /* \"#utility.yul\":8763:8796   */\n      swap2\n      pop\n        /* \"#utility.yul\":8818:8884   */\n      0xffffffffffffffffffffffffffffffffffffffffffffffffffffffffffffffff\n        /* \"#utility.yul\":8811:8816   */\n      dup3\n        /* \"#utility.yul\":8808:8885   */\n      eq\n        /* \"#utility.yul\":8805:8807   */\n      iszero\n      tag_176\n      jumpi\n        /* \"#utility.yul\":8888:8906   */\n      tag_177\n      tag_178\n      jump\t// in\n    tag_177:\n        /* \"#utility.yul\":8805:8807   */\n    tag_176:\n        /* \"#utility.yul\":8935:8936   */\n      0x01\n        /* \"#utility.yul\":8928:8933   */\n      dup3\n        /* \"#utility.yul\":8924:8937   */\n      add\n        /* \"#utility.yul\":8917:8937   */\n      swap1\n      pop\n        /* \"#utility.yul\":8753:8943   */\n      swap2\n      swap1\n      pop\n      jump\t// out\n        /* \"#utility.yul\":8949:9129   */\n    tag_178:\n        /* \"#utility.yul\":8997:9074   */\n      0x4e487b7100000000000000000000000000000000000000000000000000000000\n        /* \"#utility.yul\":8994:8995   */\n      0x00\n        /* \"#utility.yul\":8987:9075   */\n      mstore\n        /* \"#utility.yul\":9094:9098   */\n      0x11\n        /* \"#utility.yul\":9091:9092   */\n      0x04\n        /* \"#utility.yul\":9084:9099   */\n      mstore\n        /* \"#utility.yul\":9118:9122   */\n      0x24\n        /* \"#utility.yul\":9115:9116   */\n      0x00\n        /* \"#utility.yul\":9108:9123   */\n      revert\n        /* \"#utility.yul\":9135:9315   */\n    tag_173:\n        /* \"#utility.yul\":9183:9260   */\n      0x4e487b7100000000000000000000000000000000000000000000000000000000\n        /* \"#utility.yul\":9180:9181   */\n      0x00\n        /* \"#utility.yul\":9173:9261   */\n      mstore\n        /* \"#utility.yul\":9280:9284   */\n      0x22\n        /* \"#utility.yul\":9277:9278   */\n      0x04\n        /* \"#utility.yul\":9270:9285   */\n      mstore\n        /* \"#utility.yul\":9304:9308   */\n      0x24\n        /* \"#utility.yul\":9301:9302   */\n      0x00\n        /* \"#utility.yul\":9294:9309   */\n      revert\n        /* \"#utility.yul\":9321:9423   */\n    tag_97:\n      0x00\n        /* \"#utility.yul\":9413:9415   */\n      0x1f\n        /* \"#utility.yul\":9409:9416   */\n      not\n        /* \"#utility.yul\":9404:9406   */\n      0x1f\n        /* \"#utility.yul\":9397:9402   */\n      dup4\n        /* \"#utility.yul\":9393:9407   */\n      add\n        /* \"#utility.yul\":9389:9417   */\n      and\n        /* \"#utility.yul\":9379:9417   */\n      swap1\n      pop\n        /* \"#utility.yul\":9369:9423   */\n      swap2\n      swap1\n      pop\n      jump\t// out\n        /* \"#utility.yul\":9429:9592   */\n    tag_124:\n        /* \"#utility.yul\":9569:9584   */\n      0x416c726561647945786973747300000000000000000000000000000000000000\n        /* \"#utility.yul\":9565:9566   */\n      0x00\n        /* \"#utility.yul\":9557:9563   */\n      dup3\n        /* \"#utility.yul\":9553:9567   */\n      add\n        /* \"#utility.yul\":9546:9585   */\n      mstore\n        /* \"#utility.yul\":9535:9592   */\n      pop\n      jump\t// out\n        /* \"#utility.yul\":9598:9720   */\n    tag_66:\n        /* \"#utility.yul\":9671:9695   */\n      tag_184\n        /* \"#utility.yul\":9689:9694   */\n      dup2\n        /* \"#utility.yul\":9671:9695   */\n      tag_86\n      jump\t// in\n    tag_184:\n        /* \"#utility.yul\":9664:9669   */\n      dup2\n        /* \"#utility.yul\":9661:9696   */\n      eq\n        /* \"#utility.yul\":9651:9653   */\n      tag_185\n      jumpi\n        /* \"#utility.yul\":9710:9711   */\n      0x00\n        /* \"#utility.yul\":9707:9708   */\n      dup1\n        /* \"#utility.yul\":9700:9712   */\n      revert\n        /* \"#utility.yul\":9651:9653   */\n    tag_185:\n        /* \"#utility.yul\":9641:9720   */\n      pop\n      jump\t// out\n\n    auxdata: 0xa2646970667358221220325c5415e980b6ce3b00953e31fb23fec7564f5ae2594202bc4f6b77b5117c0964736f6c63430008020033\n}\n",
				"bytecode": {
					"linkReferences": {},
					"object": "608060405234801561001057600080fd5b50610a48806100206000396000f3fe608060405234801561001057600080fd5b50600436106100415760003560e01c806372487d521461004657806382fbdc9c14610076578063fa6f1dc3146100a6575b600080fd5b610060600480360381019061005b9190610537565b6100d8565b60405161006d91906107f5565b60405180910390f35b610090600480360381019061008b9190610560565b6101aa565b60405161009d919061074a565b60405180910390f35b6100c060048036038101906100bb9190610537565b61032b565b6040516100cf93929190610765565b60405180910390f35b6100e0610411565b6000808381526020019081526020016000206040518060600160405290816000820154815260200160018201548152602001600282018054610121906108e8565b80601f016020809104026020016040519081016040528092919081815260200182805461014d906108e8565b801561019a5780601f1061016f5761010080835404028352916020019161019a565b820191906000526020600020905b81548152906001019060200180831161017d57829003601f168201915b5050505050815250509050919050565b6000806001600081546101bc9061091a565b9190508190559050600060405180606001604052806000801b815260200183815260200186868080601f016020809104026020016040519081016040528093929190818152602001838380828437600081840152601f19601f8201169050808301925050505050505081525090506000610235826103dd565b90506000801b6000808381526020019081526020016000206000015414610291576040517f08c379a0000000000000000000000000000000000000000000000000000000008152600401610288906107d5565b60405180910390fd5b8082600001818152505081600080838152602001908152602001600020600082015181600001556020820151816001015560408201518160020190805190602001906102de929190610435565b5090505082817fbf98b1465a8e9be3ba9c4c4961cade00b8ee16522d23f19068efa38f2769f141888833604051610317939291906107a3565b60405180910390a380935050505092915050565b600060205280600052604060002060009150905080600001549080600101549080600201805461035a906108e8565b80601f0160208091040260200160405190810160405280929190818152602001828054610386906108e8565b80156103d35780601f106103a8576101008083540402835291602001916103d3565b820191906000526020600020905b8154815290600101906020018083116103b657829003601f168201915b5050505050905083565b600081604001516040516020016103f49190610733565b604051602081830303815290604052805190602001209050919050565b60405180606001604052806000801916815260200160008152602001606081525090565b828054610441906108e8565b90600052602060002090601f01602090048101928261046357600085556104aa565b82601f1061047c57805160ff19168380011785556104aa565b828001600101855582156104aa579182015b828111156104a957825182559160200191906001019061048e565b5b5090506104b791906104bb565b5090565b5b808211156104d45760008160009055506001016104bc565b5090565b6000813590506104e7816109fb565b92915050565b60008083601f8401126104ff57600080fd5b8235905067ffffffffffffffff81111561051857600080fd5b60208301915083600182028301111561053057600080fd5b9250929050565b60006020828403121561054957600080fd5b6000610557848285016104d8565b91505092915050565b6000806020838503121561057357600080fd5b600083013567ffffffffffffffff81111561058d57600080fd5b610599858286016104ed565b92509250509250929050565b6105ae81610860565b82525050565b6105bd81610872565b82525050565b6105cc81610872565b82525050565b60006105de8385610833565b93506105eb8385846108a6565b6105f4836109c1565b840190509392505050565b600061060a82610817565b6106148185610822565b93506106248185602086016108b5565b61062d816109c1565b840191505092915050565b600061064382610817565b61064d8185610833565b935061065d8185602086016108b5565b610666816109c1565b840191505092915050565b600061067c82610817565b6106868185610844565b93506106968185602086016108b5565b80840191505092915050565b60006106af600d8361084f565b91506106ba826109d2565b602082019050919050565b60006060830160008301516106dd60008601826105b4565b5060208301516106f06020860182610715565b506040830151848203604086015261070882826105ff565b9150508091505092915050565b61071e8161089c565b82525050565b61072d8161089c565b82525050565b600061073f8284610671565b915081905092915050565b600060208201905061075f60008301846105c3565b92915050565b600060608201905061077a60008301866105c3565b6107876020830185610724565b81810360408301526107998184610638565b9050949350505050565b600060408201905081810360008301526107be8185876105d2565b90506107cd60208301846105a5565b949350505050565b600060208201905081810360008301526107ee816106a2565b9050919050565b6000602082019050818103600083015261080f81846106c5565b905092915050565b600081519050919050565b600082825260208201905092915050565b600082825260208201905092915050565b600081905092915050565b600082825260208201905092915050565b600061086b8261087c565b9050919050565b6000819050919050565b600073ffffffffffffffffffffffffffffffffffffffff82169050919050565b6000819050919050565b82818337600083830152505050565b60005b838110156108d35780820151818401526020810190506108b8565b838111156108e2576000848401525b50505050565b6000600282049050600182168061090057607f821691505b6020821081141561091457610913610992565b5b50919050565b60006109258261089c565b91507fffffffffffffffffffffffffffffffffffffffffffffffffffffffffffffffff82141561095857610957610963565b5b600182019050919050565b7f4e487b7100000000000000000000000000000000000000000000000000000000600052601160045260246000fd5b7f4e487b7100000000000000000000000000000000000000000000000000000000600052602260045260246000fd5b6000601f19601f8301169050919050565b7f416c726561647945786973747300000000000000000000000000000000000000600082015250565b610a0481610872565b8114610a0f57600080fd5b5056fea2646970667358221220325c5415e980b6ce3b00953e31fb23fec7564f5ae2594202bc4f6b77b5117c0964736f6c63430008020033",
					"opcodes": "PUSH1 0x80 PUSH1 0x40 MSTORE CALLVALUE DUP1 ISZERO PUSH2 0x10 JUMPI PUSH1 0x0 DUP1 REVERT JUMPDEST POP PUSH2 0xA48 DUP1 PUSH2 0x20 PUSH1 0x0 CODECOPY PUSH1 0x0 RETURN INVALID PUSH1 0x80 PUSH1 0x40 MSTORE CALLVALUE DUP1 ISZERO PUSH2 0x10 JUMPI PUSH1 0x0 DUP1 REVERT JUMPDEST POP PUSH1 0x4 CALLDATASIZE LT PUSH2 0x41 JUMPI PUSH1 0x0 CALLDATALOAD PUSH1 0xE0 SHR DUP1 PUSH4 0x72487D52 EQ PUSH2 0x46 JUMPI DUP1 PUSH4 0x82FBDC9C EQ PUSH2 0x76 JUMPI DUP1 PUSH4 0xFA6F1DC3 EQ PUSH2 0xA6 JUMPI JUMPDEST PUSH1 0x0 DUP1 REVERT JUMPDEST PUSH2 0x60 PUSH1 0x4 DUP1 CALLDATASIZE SUB DUP2 ADD SWAP1 PUSH2 0x5B SWAP2 SWAP1 PUSH2 0x537 JUMP JUMPDEST PUSH2 0xD8 JUMP JUMPDEST PUSH1 0x40 MLOAD PUSH2 0x6D SWAP2 SWAP1 PUSH2 0x7F5 JUMP JUMPDEST PUSH1 0x40 MLOAD DUP1 SWAP2 SUB SWAP1 RETURN JUMPDEST PUSH2 0x90 PUSH1 0x4 DUP1 CALLDATASIZE SUB DUP2 ADD SWAP1 PUSH2 0x8B SWAP2 SWAP1 PUSH2 0x560 JUMP JUMPDEST PUSH2 0x1AA JUMP JUMPDEST PUSH1 0x40 MLOAD PUSH2 0x9D SWAP2 SWAP1 PUSH2 0x74A JUMP JUMPDEST PUSH1 0x40 MLOAD DUP1 SWAP2 SUB SWAP1 RETURN JUMPDEST PUSH2 0xC0 PUSH1 0x4 DUP1 CALLDATASIZE SUB DUP2 ADD SWAP1 PUSH2 0xBB SWAP2 SWAP1 PUSH2 0x537 JUMP JUMPDEST PUSH2 0x32B JUMP JUMPDEST PUSH1 0x40 MLOAD PUSH2 0xCF SWAP4 SWAP3 SWAP2 SWAP1 PUSH2 0x765 JUMP JUMPDEST PUSH1 0x40 MLOAD DUP1 SWAP2 SUB SWAP1 RETURN JUMPDEST PUSH2 0xE0 PUSH2 0x411 JUMP JUMPDEST PUSH1 0x0 DUP1 DUP4 DUP2 MSTORE PUSH1 0x20 ADD SWAP1 DUP2 MSTORE PUSH1 0x20 ADD PUSH1 0x0 KECCAK256 PUSH1 0x40 MLOAD DUP1 PUSH1 0x60 ADD PUSH1 0x40 MSTORE SWAP1 DUP2 PUSH1 0x0 DUP3 ADD SLOAD DUP2 MSTORE PUSH1 0x20 ADD PUSH1 0x1 DUP3 ADD SLOAD DUP2 MSTORE PUSH1 0x20 ADD PUSH1 0x2 DUP3 ADD DUP1 SLOAD PUSH2 0x121 SWAP1 PUSH2 0x8E8 JUMP JUMPDEST DUP1 PUSH1 0x1F ADD PUSH1 0x20 DUP1 SWAP2 DIV MUL PUSH1 0x20 ADD PUSH1 0x40 MLOAD SWAP1 DUP2 ADD PUSH1 0x40 MSTORE DUP1 SWAP3 SWAP2 SWAP1 DUP2 DUP2 MSTORE PUSH1 0x20 ADD DUP3 DUP1 SLOAD PUSH2 0x14D SWAP1 PUSH2 0x8E8 JUMP JUMPDEST DUP1 ISZERO PUSH2 0x19A JUMPI DUP1 PUSH1 0x1F LT PUSH2 0x16F JUMPI PUSH2 0x100 DUP1 DUP4 SLOAD DIV MUL DUP4 MSTORE SWAP2 PUSH1 0x20 ADD SWAP2 PUSH2 0x19A JUMP JUMPDEST DUP3 ADD SWAP2 SWAP1 PUSH1 0x0 MSTORE PUSH1 0x20 PUSH1 0x0 KECCAK256 SWAP1 JUMPDEST DUP2 SLOAD DUP2 MSTORE SWAP1 PUSH1 0x1 ADD SWAP1 PUSH1 0x20 ADD DUP1 DUP4 GT PUSH2 0x17D JUMPI DUP3 SWAP1 SUB PUSH1 0x1F AND DUP3 ADD SWAP2 JUMPDEST POP POP POP POP POP DUP2 MSTORE POP POP SWAP1 POP SWAP2 SWAP1 POP JUMP JUMPDEST PUSH1 0x0 DUP1 PUSH1 0x1 PUSH1 0x0 DUP2 SLOAD PUSH2 0x1BC SWAP1 PUSH2 0x91A JUMP JUMPDEST SWAP2 SWAP1 POP DUP2 SWAP1 SSTORE SWAP1 POP PUSH1 0x0 PUSH1 0x40 MLOAD DUP1 PUSH1 0x60 ADD PUSH1 0x40 MSTORE DUP1 PUSH1 0x0 DUP1 SHL DUP2 MSTORE PUSH1 0x20 ADD DUP4 DUP2 MSTORE PUSH1 0x20 ADD DUP7 DUP7 DUP1 DUP1 PUSH1 0x1F ADD PUSH1 0x20 DUP1 SWAP2 DIV MUL PUSH1 0x20 ADD PUSH1 0x40 MLOAD SWAP1 DUP2 ADD PUSH1 0x40 MSTORE DUP1 SWAP4 SWAP3 SWAP2 SWAP1 DUP2 DUP2 MSTORE PUSH1 0x20 ADD DUP4 DUP4 DUP1 DUP3 DUP5 CALLDATACOPY PUSH1 0x0 DUP2 DUP5 ADD MSTORE PUSH1 0x1F NOT PUSH1 0x1F DUP3 ADD AND SWAP1 POP DUP1 DUP4 ADD SWAP3 POP POP POP POP POP POP POP DUP2 MSTORE POP SWAP1 POP PUSH1 0x0 PUSH2 0x235 DUP3 PUSH2 0x3DD JUMP JUMPDEST SWAP1 POP PUSH1 0x0 DUP1 SHL PUSH1 0x0 DUP1 DUP4 DUP2 MSTORE PUSH1 0x20 ADD SWAP1 DUP2 MSTORE PUSH1 0x20 ADD PUSH1 0x0 KECCAK256 PUSH1 0x0 ADD SLOAD EQ PUSH2 0x291 JUMPI PUSH1 0x40 MLOAD PUSH32 0x8C379A000000000000000000000000000000000000000000000000000000000 DUP2 MSTORE PUSH1 0x4 ADD PUSH2 0x288 SWAP1 PUSH2 0x7D5 JUMP JUMPDEST PUSH1 0x40 MLOAD DUP1 SWAP2 SUB SWAP1 REVERT JUMPDEST DUP1 DUP3 PUSH1 0x0 ADD DUP2 DUP2 MSTORE POP POP DUP2 PUSH1 0x0 DUP1 DUP4 DUP2 MSTORE PUSH1 0x20 ADD SWAP1 DUP2 MSTORE PUSH1 0x20 ADD PUSH1 0x0 KECCAK256 PUSH1 0x0 DUP3 ADD MLOAD DUP2 PUSH1 0x0 ADD SSTORE PUSH1 0x20 DUP3 ADD MLOAD DUP2 PUSH1 0x1 ADD SSTORE PUSH1 0x40 DUP3 ADD MLOAD DUP2 PUSH1 0x2 ADD SWAP1 DUP1 MLOAD SWAP1 PUSH1 0x20 ADD SWAP1 PUSH2 0x2DE SWAP3 SWAP2 SWAP1 PUSH2 0x435 JUMP JUMPDEST POP SWAP1 POP POP DUP3 DUP2 PUSH32 0xBF98B1465A8E9BE3BA9C4C4961CADE00B8EE16522D23F19068EFA38F2769F141 DUP9 DUP9 CALLER PUSH1 0x40 MLOAD PUSH2 0x317 SWAP4 SWAP3 SWAP2 SWAP1 PUSH2 0x7A3 JUMP JUMPDEST PUSH1 0x40 MLOAD DUP1 SWAP2 SUB SWAP1 LOG3 DUP1 SWAP4 POP POP POP POP SWAP3 SWAP2 POP POP JUMP JUMPDEST PUSH1 0x0 PUSH1 0x20 MSTORE DUP1 PUSH1 0x0 MSTORE PUSH1 0x40 PUSH1 0x0 KECCAK256 PUSH1 0x0 SWAP2 POP SWAP1 POP DUP1 PUSH1 0x0 ADD SLOAD SWAP1 DUP1 PUSH1 0x1 ADD SLOAD SWAP1 DUP1 PUSH1 0x2 ADD DUP1 SLOAD PUSH2 0x35A SWAP1 PUSH2 0x8E8 JUMP JUMPDEST DUP1 PUSH1 0x1F ADD PUSH1 0x20 DUP1 SWAP2 DIV MUL PUSH1 0x20 ADD PUSH1 0x40 MLOAD SWAP1 DUP2 ADD PUSH1 0x40 MSTORE DUP1 SWAP3 SWAP2 SWAP1 DUP2 DUP2 MSTORE PUSH1 0x20 ADD DUP3 DUP1 SLOAD PUSH2 0x386 SWAP1 PUSH2 0x8E8 JUMP JUMPDEST DUP1 ISZERO PUSH2 0x3D3 JUMPI DUP1 PUSH1 0x1F LT PUSH2 0x3A8 JUMPI PUSH2 0x100 DUP1 DUP4 SLOAD DIV MUL DUP4 MSTORE SWAP2 PUSH1 0x20 ADD SWAP2 PUSH2 0x3D3 JUMP JUMPDEST DUP3 ADD SWAP2 SWAP1 PUSH1 0x0 MSTORE PUSH1 0x20 PUSH1 0x0 KECCAK256 SWAP1 JUMPDEST DUP2 SLOAD DUP2 MSTORE SWAP1 PUSH1 0x1 ADD SWAP1 PUSH1 0x20 ADD DUP1 DUP4 GT PUSH2 0x3B6 JUMPI DUP3 SWAP1 SUB PUSH1 0x1F AND DUP3 ADD SWAP2 JUMPDEST POP POP POP POP POP SWAP1 POP DUP4 JUMP JUMPDEST PUSH1 0x0 DUP2 PUSH1 0x40 ADD MLOAD PUSH1 0x40 MLOAD PUSH1 0x20 ADD PUSH2 0x3F4 SWAP2 SWAP1 PUSH2 0x733 JUMP JUMPDEST PUSH1 0x40 MLOAD PUSH1 0x20 DUP2 DUP4 SUB SUB DUP2 MSTORE SWAP1 PUSH1 0x40 MSTORE DUP1 MLOAD SWAP1 PUSH1 0x20 ADD KECCAK256 SWAP1 POP SWAP2 SWAP1 POP JUMP JUMPDEST PUSH1 0x40 MLOAD DUP1 PUSH1 0x60 ADD PUSH1 0x40 MSTORE DUP1 PUSH1 0x0 DUP1 NOT AND DUP2 MSTORE PUSH1 0x20 ADD PUSH1 0x0 DUP2 MSTORE PUSH1 0x20 ADD PUSH1 0x60 DUP2 MSTORE POP SWAP1 JUMP JUMPDEST DUP3 DUP1 SLOAD PUSH2 0x441 SWAP1 PUSH2 0x8E8 JUMP JUMPDEST SWAP1 PUSH1 0x0 MSTORE PUSH1 0x20 PUSH1 0x0 KECCAK256 SWAP1 PUSH1 0x1F ADD PUSH1 0x20 SWAP1 DIV DUP2 ADD SWAP3 DUP3 PUSH2 0x463 JUMPI PUSH1 0x0 DUP6 SSTORE PUSH2 0x4AA JUMP JUMPDEST DUP3 PUSH1 0x1F LT PUSH2 0x47C JUMPI DUP1 MLOAD PUSH1 0xFF NOT AND DUP4 DUP1 ADD OR DUP6 SSTORE PUSH2 0x4AA JUMP JUMPDEST DUP3 DUP1 ADD PUSH1 0x1 ADD DUP6 SSTORE DUP3 ISZERO PUSH2 0x4AA JUMPI SWAP2 DUP3 ADD JUMPDEST DUP3 DUP2 GT ISZERO PUSH2 0x4A9 JUMPI DUP3 MLOAD DUP3 SSTORE SWAP2 PUSH1 0x20 ADD SWAP2 SWAP1 PUSH1 0x1 ADD SWAP1 PUSH2 0x48E JUMP JUMPDEST JUMPDEST POP SWAP1 POP PUSH2 0x4B7 SWAP2 SWAP1 PUSH2 0x4BB JUMP JUMPDEST POP SWAP1 JUMP JUMPDEST JUMPDEST DUP1 DUP3 GT ISZERO PUSH2 0x4D4 JUMPI PUSH1 0x0 DUP2 PUSH1 0x0 SWAP1 SSTORE POP PUSH1 0x1 ADD PUSH2 0x4BC JUMP JUMPDEST POP SWAP1 JUMP JUMPDEST PUSH1 0x0 DUP2 CALLDATALOAD SWAP1 POP PUSH2 0x4E7 DUP2 PUSH2 0x9FB JUMP JUMPDEST SWAP3 SWAP2 POP POP JUMP JUMPDEST PUSH1 0x0 DUP1 DUP4 PUSH1 0x1F DUP5 ADD SLT PUSH2 0x4FF JUMPI PUSH1 0x0 DUP1 REVERT JUMPDEST DUP3 CALLDATALOAD SWAP1 POP PUSH8 0xFFFFFFFFFFFFFFFF DUP2 GT ISZERO PUSH2 0x518 JUMPI PUSH1 0x0 DUP1 REVERT JUMPDEST PUSH1 0x20 DUP4 ADD SWAP2 POP DUP4 PUSH1 0x1 DUP3 MUL DUP4 ADD GT ISZERO PUSH2 0x530 JUMPI PUSH1 0x0 DUP1 REVERT JUMPDEST SWAP3 POP SWAP3 SWAP1 POP JUMP JUMPDEST PUSH1 0x0 PUSH1 0x20 DUP3 DUP5 SUB SLT ISZERO PUSH2 0x549 JUMPI PUSH1 0x0 DUP1 REVERT JUMPDEST PUSH1 0x0 PUSH2 0x557 DUP5 DUP3 DUP6 ADD PUSH2 0x4D8 JUMP JUMPDEST SWAP2 POP POP SWAP3 SWAP2 POP POP JUMP JUMPDEST PUSH1 0x0 DUP1 PUSH1 0x20 DUP4 DUP6 SUB SLT ISZERO PUSH2 0x573 JUMPI PUSH1 0x0 DUP1 REVERT JUMPDEST PUSH1 0x0 DUP4 ADD CALLDATALOAD PUSH8 0xFFFFFFFFFFFFFFFF DUP2 GT ISZERO PUSH2 0x58D JUMPI PUSH1 0x0 DUP1 REVERT JUMPDEST PUSH2 0x599 DUP6 DUP3 DUP7 ADD PUSH2 0x4ED JUMP JUMPDEST SWAP3 POP SWAP3 POP POP SWAP3 POP SWAP3 SWAP1 POP JUMP JUMPDEST PUSH2 0x5AE DUP2 PUSH2 0x860 JUMP JUMPDEST DUP3 MSTORE POP POP JUMP JUMPDEST PUSH2 0x5BD DUP2 PUSH2 0x872 JUMP JUMPDEST DUP3 MSTORE POP POP JUMP JUMPDEST PUSH2 0x5CC DUP2 PUSH2 0x872 JUMP JUMPDEST DUP3 MSTORE POP POP JUMP JUMPDEST PUSH1 0x0 PUSH2 0x5DE DUP4 DUP6 PUSH2 0x833 JUMP JUMPDEST SWAP4 POP PUSH2 0x5EB DUP4 DUP6 DUP5 PUSH2 0x8A6 JUMP JUMPDEST PUSH2 0x5F4 DUP4 PUSH2 0x9C1 JUMP JUMPDEST DUP5 ADD SWAP1 POP SWAP4 SWAP3 POP POP POP JUMP JUMPDEST PUSH1 0x0 PUSH2 0x60A DUP3 PUSH2 0x817 JUMP JUMPDEST PUSH2 0x614 DUP2 DUP6 PUSH2 0x822 JUMP JUMPDEST SWAP4 POP PUSH2 0x624 DUP2 DUP6 PUSH1 0x20 DUP7 ADD PUSH2 0x8B5 JUMP JUMPDEST PUSH2 0x62D DUP2 PUSH2 0x9C1 JUMP JUMPDEST DUP5 ADD SWAP2 POP POP SWAP3 SWAP2 POP POP JUMP JUMPDEST PUSH1 0x0 PUSH2 0x643 DUP3 PUSH2 0x817 JUMP JUMPDEST PUSH2 0x64D DUP2 DUP6 PUSH2 0x833 JUMP JUMPDEST SWAP4 POP PUSH2 0x65D DUP2 DUP6 PUSH1 0x20 DUP7 ADD PUSH2 0x8B5 JUMP JUMPDEST PUSH2 0x666 DUP2 PUSH2 0x9C1 JUMP JUMPDEST DUP5 ADD SWAP2 POP POP SWAP3 SWAP2 POP POP JUMP JUMPDEST PUSH1 0x0 PUSH2 0x67C DUP3 PUSH2 0x817 JUMP JUMPDEST PUSH2 0x686 DUP2 DUP6 PUSH2 0x844 JUMP JUMPDEST SWAP4 POP PUSH2 0x696 DUP2 DUP6 PUSH1 0x20 DUP7 ADD PUSH2 0x8B5 JUMP JUMPDEST DUP1 DUP5 ADD SWAP2 POP POP SWAP3 SWAP2 POP POP JUMP JUMPDEST PUSH1 0x0 PUSH2 0x6AF PUSH1 0xD DUP4 PUSH2 0x84F JUMP JUMPDEST SWAP2 POP PUSH2 0x6BA DUP3 PUSH2 0x9D2 JUMP JUMPDEST PUSH1 0x20 DUP3 ADD SWAP1 POP SWAP2 SWAP1 POP JUMP JUMPDEST PUSH1 0x0 PUSH1 0x60 DUP4 ADD PUSH1 0x0 DUP4 ADD MLOAD PUSH2 0x6DD PUSH1 0x0 DUP7 ADD DUP3 PUSH2 0x5B4 JUMP JUMPDEST POP PUSH1 0x20 DUP4 ADD MLOAD PUSH2 0x6F0 PUSH1 0x20 DUP7 ADD DUP3 PUSH2 0x715 JUMP JUMPDEST POP PUSH1 0x40 DUP4 ADD MLOAD DUP5 DUP3 SUB PUSH1 0x40 DUP7 ADD MSTORE PUSH2 0x708 DUP3 DUP3 PUSH2 0x5FF JUMP JUMPDEST SWAP2 POP POP DUP1 SWAP2 POP POP SWAP3 SWAP2 POP POP JUMP JUMPDEST PUSH2 0x71E DUP2 PUSH2 0x89C JUMP JUMPDEST DUP3 MSTORE POP POP JUMP JUMPDEST PUSH2 0x72D DUP2 PUSH2 0x89C JUMP JUMPDEST DUP3 MSTORE POP POP JUMP JUMPDEST PUSH1 0x0 PUSH2 0x73F DUP3 DUP5 PUSH2 0x671 JUMP JUMPDEST SWAP2 POP DUP2 SWAP1 POP SWAP3 SWAP2 POP POP JUMP JUMPDEST PUSH1 0x0 PUSH1 0x20 DUP3 ADD SWAP1 POP PUSH2 0x75F PUSH1 0x0 DUP4 ADD DUP5 PUSH2 0x5C3 JUMP JUMPDEST SWAP3 SWAP2 POP POP JUMP JUMPDEST PUSH1 0x0 PUSH1 0x60 DUP3 ADD SWAP1 POP PUSH2 0x77A PUSH1 0x0 DUP4 ADD DUP7 PUSH2 0x5C3 JUMP JUMPDEST PUSH2 0x787 PUSH1 0x20 DUP4 ADD DUP6 PUSH2 0x724 JUMP JUMPDEST DUP2 DUP2 SUB PUSH1 0x40 DUP4 ADD MSTORE PUSH2 0x799 DUP2 DUP5 PUSH2 0x638 JUMP JUMPDEST SWAP1 POP SWAP5 SWAP4 POP POP POP POP JUMP JUMPDEST PUSH1 0x0 PUSH1 0x40 DUP3 ADD SWAP1 POP DUP2 DUP2 SUB PUSH1 0x0 DUP4 ADD MSTORE PUSH2 0x7BE DUP2 DUP6 DUP8 PUSH2 0x5D2 JUMP JUMPDEST SWAP1 POP PUSH2 0x7CD PUSH1 0x20 DUP4 ADD DUP5 PUSH2 0x5A5 JUMP JUMPDEST SWAP5 SWAP4 POP POP POP POP JUMP JUMPDEST PUSH1 0x0 PUSH1 0x20 DUP3 ADD SWAP1 POP DUP2 DUP2 SUB PUSH1 0x0 DUP4 ADD MSTORE PUSH2 0x7EE DUP2 PUSH2 0x6A2 JUMP JUMPDEST SWAP1 POP SWAP2 SWAP1 POP JUMP JUMPDEST PUSH1 0x0 PUSH1 0x20 DUP3 ADD SWAP1 POP DUP2 DUP2 SUB PUSH1 0x0 DUP4 ADD MSTORE PUSH2 0x80F DUP2 DUP5 PUSH2 0x6C5 JUMP JUMPDEST SWAP1 POP SWAP3 SWAP2 POP POP JUMP JUMPDEST PUSH1 0x0 DUP2 MLOAD SWAP1 POP SWAP2 SWAP1 POP JUMP JUMPDEST PUSH1 0x0 DUP3 DUP3 MSTORE PUSH1 0x20 DUP3 ADD SWAP1 POP SWAP3 SWAP2 POP POP JUMP JUMPDEST PUSH1 0x0 DUP3 DUP3 MSTORE PUSH1 0x20 DUP3 ADD SWAP1 POP SWAP3 SWAP2 POP POP JUMP JUMPDEST PUSH1 0x0 DUP2 SWAP1 POP SWAP3 SWAP2 POP POP JUMP JUMPDEST PUSH1 0x0 DUP3 DUP3 MSTORE PUSH1 0x20 DUP3 ADD SWAP1 POP SWAP3 SWAP2 POP POP JUMP JUMPDEST PUSH1 0x0 PUSH2 0x86B DUP3 PUSH2 0x87C JUMP JUMPDEST SWAP1 POP SWAP2 SWAP1 POP JUMP JUMPDEST PUSH1 0x0 DUP2 SWAP1 POP SWAP2 SWAP1 POP JUMP JUMPDEST PUSH1 0x0 PUSH20 0xFFFFFFFFFFFFFFFFFFFFFFFFFFFFFFFFFFFFFFFF DUP3 AND SWAP1 POP SWAP2 SWAP1 POP JUMP JUMPDEST PUSH1 0x0 DUP2 SWAP1 POP SWAP2 SWAP1 POP JUMP JUMPDEST DUP3 DUP2 DUP4 CALLDATACOPY PUSH1 0x0 DUP4 DUP4 ADD MSTORE POP POP POP JUMP JUMPDEST PUSH1 0x0 JUMPDEST DUP4 DUP2 LT ISZERO PUSH2 0x8D3 JUMPI DUP1 DUP3 ADD MLOAD DUP2 DUP5 ADD MSTORE PUSH1 0x20 DUP2 ADD SWAP1 POP PUSH2 0x8B8 JUMP JUMPDEST DUP4 DUP2 GT ISZERO PUSH2 0x8E2 JUMPI PUSH1 0x0 DUP5 DUP5 ADD MSTORE JUMPDEST POP POP POP POP JUMP JUMPDEST PUSH1 0x0 PUSH1 0x2 DUP3 DIV SWAP1 POP PUSH1 0x1 DUP3 AND DUP1 PUSH2 0x900 JUMPI PUSH1 0x7F DUP3 AND SWAP2 POP JUMPDEST PUSH1 0x20 DUP3 LT DUP2 EQ ISZERO PUSH2 0x914 JUMPI PUSH2 0x913 PUSH2 0x992 JUMP JUMPDEST JUMPDEST POP SWAP2 SWAP1 POP JUMP JUMPDEST PUSH1 0x0 PUSH2 0x925 DUP3 PUSH2 0x89C JUMP JUMPDEST SWAP2 POP PUSH32 0xFFFFFFFFFFFFFFFFFFFFFFFFFFFFFFFFFFFFFFFFFFFFFFFFFFFFFFFFFFFFFFFF DUP3 EQ ISZERO PUSH2 0x958 JUMPI PUSH2 0x957 PUSH2 0x963 JUMP JUMPDEST JUMPDEST PUSH1 0x1 DUP3 ADD SWAP1 POP SWAP2 SWAP1 POP JUMP JUMPDEST PUSH32 0x4E487B7100000000000000000000000000000000000000000000000000000000 PUSH1 0x0 MSTORE PUSH1 0x11 PUSH1 0x4 MSTORE PUSH1 0x24 PUSH1 0x0 REVERT JUMPDEST PUSH32 0x4E487B7100000000000000000000000000000000000000000000000000000000 PUSH1 0x0 MSTORE PUSH1 0x22 PUSH1 0x4 MSTORE PUSH1 0x24 PUSH1 0x0 REVERT JUMPDEST PUSH1 0x0 PUSH1 0x1F NOT PUSH1 0x1F DUP4 ADD AND SWAP1 POP SWAP2 SWAP1 POP JUMP JUMPDEST PUSH32 0x416C726561647945786973747300000000000000000000000000000000000000 PUSH1 0x0 DUP3 ADD MSTORE POP JUMP JUMPDEST PUSH2 0xA04 DUP2 PUSH2 0x872 JUMP JUMPDEST DUP2 EQ PUSH2 0xA0F JUMPI PUSH1 0x0 DUP1 REVERT JUMPDEST POP JUMP INVALID LOG2 PUSH5 0x6970667358 0x22 SLT KECCAK256 ORIGIN 0x5C SLOAD ISZERO 0xE9 DUP1 0xB6 0xCE EXTCODESIZE STOP SWAP6 RETURNDATACOPY BALANCE 0xFB 0x23 INVALID 0xC7 JUMP 0x4F GAS 0xE2 MSIZE TIMESTAMP MUL 0xBC 0x4F PUSH12 0x77B5117C0964736F6C634300 ADDMOD MUL STOP CALLER "
				},
				"gasEstimates": {
					"creation": {
						"codeDepositCost": "526400",
						"executionCost": "562",
						"totalCost": "526962"
					},
					"external": {
						"_registry(bytes32)": "infinite",
						"getAS(bytes32)": "infinite",
						"register(bytes)": "infinite"
					},
					"internal": {
						"_getUUID(struct IAttestationRegistry.ASRecord memory)": "infinite"
					}
				},
				"methodIdentifiers": {
					"_registry(bytes32)": "fa6f1dc3",
					"getAS(bytes32)": "72487d52",
					"register(bytes)": "82fbdc9c"
				}
			},
			"storageLayout": {
				"storage": [
					{
						"astId": 11,
						"contract": "contracts/AttestationRegistry.sol:AttestationRegistry",
						"label": "_registry",
						"offset": 0,
						"slot": "0",
						"type": "t_mapping(t_bytes32,t_struct(ASRecord)132_storage)"
					},
					{
						"astId": 23,
						"contract": "contracts/AttestationRegistry.sol:AttestationRegistry",
						"label": "_asCount",
						"offset": 0,
						"slot": "1",
						"type": "t_uint256"
					}
				],
				"types": {
					"t_bytes32": {
						"encoding": "inplace",
						"label": "bytes32",
						"numberOfBytes": "32"
					},
					"t_bytes_storage": {
						"encoding": "bytes",
						"label": "bytes",
						"numberOfBytes": "32"
					},
					"t_mapping(t_bytes32,t_struct(ASRecord)132_storage)": {
						"encoding": "mapping",
						"key": "t_bytes32",
						"label": "mapping(bytes32 => struct IAttestationRegistry.ASRecord)",
						"numberOfBytes": "32",
						"value": "t_struct(ASRecord)132_storage"
					},
					"t_struct(ASRecord)132_storage": {
						"encoding": "inplace",
						"label": "struct IAttestationRegistry.ASRecord",
						"members": [
							{
								"astId": 127,
								"contract": "contracts/AttestationRegistry.sol:AttestationRegistry",
								"label": "uuid",
								"offset": 0,
								"slot": "0",
								"type": "t_bytes32"
							},
							{
								"astId": 129,
								"contract": "contracts/AttestationRegistry.sol:AttestationRegistry",
								"label": "index",
								"offset": 0,
								"slot": "1",
								"type": "t_uint256"
							},
							{
								"astId": 131,
								"contract": "contracts/AttestationRegistry.sol:AttestationRegistry",
								"label": "schema",
								"offset": 0,
								"slot": "2",
								"type": "t_bytes_storage"
							}
						],
						"numberOfBytes": "96"
					},
					"t_uint256": {
						"encoding": "inplace",
						"label": "uint256",
						"numberOfBytes": "32"
					}
				}
			},
			"userdoc": {
				"kind": "user",
				"methods": {},
				"version": 1
			}
		}
	}
}