{
	"contracts/AconomyFee.sol": {
		"AconomyFee": {
			"abi": [
				{
					"anonymous": false,
					"inputs": [
						{
							"indexed": true,
							"internalType": "address",
							"name": "previousOwner",
							"type": "address"
						},
						{
							"indexed": true,
							"internalType": "address",
							"name": "newOwner",
							"type": "address"
						}
					],
					"name": "OwnershipTransferred",
					"type": "event"
				},
				{
					"anonymous": false,
					"inputs": [
						{
							"indexed": false,
							"internalType": "uint16",
							"name": "newFee",
							"type": "uint16"
						},
						{
							"indexed": false,
							"internalType": "uint16",
							"name": "oldFee",
							"type": "uint16"
						}
					],
					"name": "SetAconomyFee",
					"type": "event"
				},
				{
					"inputs": [],
					"name": "AconomyOwnerAddress",
					"outputs": [
						{
							"internalType": "address",
							"name": "",
							"type": "address"
						}
					],
					"stateMutability": "view",
					"type": "function"
				},
				{
					"inputs": [],
					"name": "_AconomyFee",
					"outputs": [
						{
							"internalType": "uint16",
							"name": "",
							"type": "uint16"
						}
					],
					"stateMutability": "view",
					"type": "function"
				},
				{
					"inputs": [],
					"name": "getAconomyOwnerAddress",
					"outputs": [
						{
							"internalType": "address",
							"name": "",
							"type": "address"
						}
					],
					"stateMutability": "view",
					"type": "function"
				},
				{
					"inputs": [],
					"name": "owner",
					"outputs": [
						{
							"internalType": "address",
							"name": "",
							"type": "address"
						}
					],
					"stateMutability": "view",
					"type": "function"
				},
				{
					"inputs": [],
					"name": "protocolFee",
					"outputs": [
						{
							"internalType": "uint16",
							"name": "",
							"type": "uint16"
						}
					],
					"stateMutability": "view",
					"type": "function"
				},
				{
					"inputs": [],
					"name": "renounceOwnership",
					"outputs": [],
					"stateMutability": "nonpayable",
					"type": "function"
				},
				{
					"inputs": [
						{
							"internalType": "uint16",
							"name": "newFee",
							"type": "uint16"
						}
					],
					"name": "setProtocolFee",
					"outputs": [],
					"stateMutability": "nonpayable",
					"type": "function"
				},
				{
					"inputs": [
						{
							"internalType": "address",
							"name": "newOwner",
							"type": "address"
						}
					],
					"name": "transferOwnership",
					"outputs": [],
					"stateMutability": "nonpayable",
					"type": "function"
				}
			],
			"devdoc": {
				"kind": "dev",
				"methods": {
					"owner()": {
						"details": "Returns the address of the current owner."
					},
					"renounceOwnership()": {
						"details": "Leaves the contract without owner. It will not be possible to call `onlyOwner` functions anymore. Can only be called by the current owner. NOTE: Renouncing ownership will leave the contract without an owner, thereby removing any functionality that is only available to the owner."
					},
					"transferOwnership(address)": {
						"details": "Transfers ownership of the contract to a new account (`newOwner`). Can only be called by the current owner."
					}
				},
				"version": 1
			},
			"evm": {
				"assembly": "    /* \"contracts/AconomyFee.sol\":119:849  contract AconomyFee is Ownable {... */\n  mstore(0x40, 0x80)\n  callvalue\n  dup1\n  iszero\n  tag_1\n  jumpi\n  0x00\n  dup1\n  revert\ntag_1:\n  pop\n    /* \"@openzeppelin/contracts/access/Ownable.sol\":936:968  _transferOwnership(_msgSender()) */\n  tag_4\n    /* \"@openzeppelin/contracts/access/Ownable.sol\":955:967  _msgSender() */\n  tag_5\n    /* \"@openzeppelin/contracts/access/Ownable.sol\":955:965  _msgSender */\n  shl(0x20, tag_6)\n    /* \"@openzeppelin/contracts/access/Ownable.sol\":955:967  _msgSender() */\n  0x20\n  shr\n  jump\t// in\ntag_5:\n    /* \"@openzeppelin/contracts/access/Ownable.sol\":936:954  _transferOwnership */\n  shl(0x20, tag_7)\n    /* \"@openzeppelin/contracts/access/Ownable.sol\":936:968  _transferOwnership(_msgSender()) */\n  0x20\n  shr\n  jump\t// in\ntag_4:\n    /* \"contracts/AconomyFee.sol\":119:849  contract AconomyFee is Ownable {... */\n  jump(tag_8)\n    /* \"@openzeppelin/contracts/utils/Context.sol\":640:736  function _msgSender() internal view virtual returns (address) {... */\ntag_6:\n    /* \"@openzeppelin/contracts/utils/Context.sol\":693:700  address */\n  0x00\n    /* \"@openzeppelin/contracts/utils/Context.sol\":719:729  msg.sender */\n  caller\n    /* \"@openzeppelin/contracts/utils/Context.sol\":712:729  return msg.sender */\n  swap1\n  pop\n    /* \"@openzeppelin/contracts/utils/Context.sol\":640:736  function _msgSender() internal view virtual returns (address) {... */\n  swap1\n  jump\t// out\n    /* \"@openzeppelin/contracts/access/Ownable.sol\":2433:2620  function _transferOwnership(address newOwner) internal virtual {... */\ntag_7:\n    /* \"@openzeppelin/contracts/access/Ownable.sol\":2506:2522  address oldOwner */\n  0x00\n    /* \"@openzeppelin/contracts/access/Ownable.sol\":2525:2531  _owner */\n  dup1\n  0x00\n  swap1\n  sload\n  swap1\n  0x0100\n  exp\n  swap1\n  div\n  0xffffffffffffffffffffffffffffffffffffffff\n  and\n    /* \"@openzeppelin/contracts/access/Ownable.sol\":2506:2531  address oldOwner = _owner */\n  swap1\n  pop\n    /* \"@openzeppelin/contracts/access/Ownable.sol\":2550:2558  newOwner */\n  dup2\n    /* \"@openzeppelin/contracts/access/Ownable.sol\":2541:2547  _owner */\n  0x00\n  dup1\n    /* \"@openzeppelin/contracts/access/Ownable.sol\":2541:2558  _owner = newOwner */\n  0x0100\n  exp\n  dup2\n  sload\n  dup2\n  0xffffffffffffffffffffffffffffffffffffffff\n  mul\n  not\n  and\n  swap1\n  dup4\n  0xffffffffffffffffffffffffffffffffffffffff\n  and\n  mul\n  or\n  swap1\n  sstore\n  pop\n    /* \"@openzeppelin/contracts/access/Ownable.sol\":2604:2612  newOwner */\n  dup2\n    /* \"@openzeppelin/contracts/access/Ownable.sol\":2573:2613  OwnershipTransferred(oldOwner, newOwner) */\n  0xffffffffffffffffffffffffffffffffffffffff\n  and\n    /* \"@openzeppelin/contracts/access/Ownable.sol\":2594:2602  oldOwner */\n  dup2\n    /* \"@openzeppelin/contracts/access/Ownable.sol\":2573:2613  OwnershipTransferred(oldOwner, newOwner) */\n  0xffffffffffffffffffffffffffffffffffffffff\n  and\n  0x8be0079c531659141344cd1fd0a4f28419497f9722a3daafe3b4186f6b6457e0\n  mload(0x40)\n  mload(0x40)\n  dup1\n  swap2\n  sub\n  swap1\n  log3\n    /* \"@openzeppelin/contracts/access/Ownable.sol\":2433:2620  function _transferOwnership(address newOwner) internal virtual {... */\n  pop\n  pop\n  jump\t// out\n    /* \"contracts/AconomyFee.sol\":119:849  contract AconomyFee is Ownable {... */\ntag_8:\n  dataSize(sub_0)\n  dup1\n  dataOffset(sub_0)\n  0x00\n  codecopy\n  0x00\n  return\nstop\n\nsub_0: assembly {\n        /* \"contracts/AconomyFee.sol\":119:849  contract AconomyFee is Ownable {... */\n      mstore(0x40, 0x80)\n      callvalue\n      dup1\n      iszero\n      tag_1\n      jumpi\n      0x00\n      dup1\n      revert\n    tag_1:\n      pop\n      jumpi(tag_2, lt(calldatasize, 0x04))\n      shr(0xe0, calldataload(0x00))\n      dup1\n      0x9a3d4ae6\n      gt\n      tag_11\n      jumpi\n      dup1\n      0x9a3d4ae6\n      eq\n      tag_7\n      jumpi\n      dup1\n      0xb0e21e8a\n      eq\n      tag_8\n      jumpi\n      dup1\n      0xe4467f35\n      eq\n      tag_9\n      jumpi\n      dup1\n      0xf2fde38b\n      eq\n      tag_10\n      jumpi\n      jump(tag_2)\n    tag_11:\n      dup1\n      0x4dd9ccb1\n      eq\n      tag_3\n      jumpi\n      dup1\n      0x715018a6\n      eq\n      tag_4\n      jumpi\n      dup1\n      0x8da5cb5b\n      eq\n      tag_5\n      jumpi\n      dup1\n      0x951f9c5b\n      eq\n      tag_6\n      jumpi\n    tag_2:\n      0x00\n      dup1\n      revert\n        /* \"contracts/AconomyFee.sol\":385:500  function getAconomyOwnerAddress() public view virtual returns (address) {... */\n    tag_3:\n      tag_12\n      tag_13\n      jump\t// in\n    tag_12:\n      mload(0x40)\n      tag_14\n      swap2\n      swap1\n      tag_15\n      jump\t// in\n    tag_14:\n      mload(0x40)\n      dup1\n      swap2\n      sub\n      swap1\n      return\n        /* \"@openzeppelin/contracts/access/Ownable.sol\":1831:1932  function renounceOwnership() public virtual onlyOwner {... */\n    tag_4:\n      tag_16\n      tag_17\n      jump\t// in\n    tag_16:\n      stop\n        /* \"@openzeppelin/contracts/access/Ownable.sol\":1201:1286  function owner() public view virtual returns (address) {... */\n    tag_5:\n      tag_18\n      tag_19\n      jump\t// in\n    tag_18:\n      mload(0x40)\n      tag_20\n      swap2\n      swap1\n      tag_15\n      jump\t// in\n    tag_20:\n      mload(0x40)\n      dup1\n      swap2\n      sub\n      swap1\n      return\n        /* \"contracts/AconomyFee.sol\":187:221  address public AconomyOwnerAddress */\n    tag_6:\n      tag_21\n      tag_22\n      jump\t// in\n    tag_21:\n      mload(0x40)\n      tag_23\n      swap2\n      swap1\n      tag_15\n      jump\t// in\n    tag_23:\n      mload(0x40)\n      dup1\n      swap2\n      sub\n      swap1\n      return\n        /* \"contracts/AconomyFee.sol\":156:181  uint16 public _AconomyFee */\n    tag_7:\n      tag_24\n      tag_25\n      jump\t// in\n    tag_24:\n      mload(0x40)\n      tag_26\n      swap2\n      swap1\n      tag_27\n      jump\t// in\n    tag_26:\n      mload(0x40)\n      dup1\n      swap2\n      sub\n      swap1\n      return\n        /* \"contracts/AconomyFee.sol\":284:379  function protocolFee() public view virtual returns (uint16) {... */\n    tag_8:\n      tag_28\n      tag_29\n      jump\t// in\n    tag_28:\n      mload(0x40)\n      tag_30\n      swap2\n      swap1\n      tag_27\n      jump\t// in\n    tag_30:\n      mload(0x40)\n      dup1\n      swap2\n      sub\n      swap1\n      return\n        /* \"contracts/AconomyFee.sol\":540:847  function setProtocolFee(uint16 newFee) public virtual onlyOwner {... */\n    tag_9:\n      tag_31\n      0x04\n      dup1\n      calldatasize\n      sub\n      dup2\n      add\n      swap1\n      tag_32\n      swap2\n      swap1\n      tag_33\n      jump\t// in\n    tag_32:\n      tag_34\n      jump\t// in\n    tag_31:\n      stop\n        /* \"@openzeppelin/contracts/access/Ownable.sol\":2081:2279  function transferOwnership(address newOwner) public virtual onlyOwner {... */\n    tag_10:\n      tag_35\n      0x04\n      dup1\n      calldatasize\n      sub\n      dup2\n      add\n      swap1\n      tag_36\n      swap2\n      swap1\n      tag_37\n      jump\t// in\n    tag_36:\n      tag_38\n      jump\t// in\n    tag_35:\n      stop\n        /* \"contracts/AconomyFee.sol\":385:500  function getAconomyOwnerAddress() public view virtual returns (address) {... */\n    tag_13:\n        /* \"contracts/AconomyFee.sol\":448:455  address */\n      0x00\n        /* \"contracts/AconomyFee.sol\":474:493  AconomyOwnerAddress */\n      0x01\n      0x00\n      swap1\n      sload\n      swap1\n      0x0100\n      exp\n      swap1\n      div\n      0xffffffffffffffffffffffffffffffffffffffff\n      and\n        /* \"contracts/AconomyFee.sol\":467:493  return AconomyOwnerAddress */\n      swap1\n      pop\n        /* \"contracts/AconomyFee.sol\":385:500  function getAconomyOwnerAddress() public view virtual returns (address) {... */\n      swap1\n      jump\t// out\n        /* \"@openzeppelin/contracts/access/Ownable.sol\":1831:1932  function renounceOwnership() public virtual onlyOwner {... */\n    tag_17:\n        /* \"@openzeppelin/contracts/access/Ownable.sol\":1094:1107  _checkOwner() */\n      tag_41\n        /* \"@openzeppelin/contracts/access/Ownable.sol\":1094:1105  _checkOwner */\n      tag_42\n        /* \"@openzeppelin/contracts/access/Ownable.sol\":1094:1107  _checkOwner() */\n      jump\t// in\n    tag_41:\n        /* \"@openzeppelin/contracts/access/Ownable.sol\":1895:1925  _transferOwnership(address(0)) */\n      tag_44\n        /* \"@openzeppelin/contracts/access/Ownable.sol\":1922:1923  0 */\n      0x00\n        /* \"@openzeppelin/contracts/access/Ownable.sol\":1895:1913  _transferOwnership */\n      tag_45\n        /* \"@openzeppelin/contracts/access/Ownable.sol\":1895:1925  _transferOwnership(address(0)) */\n      jump\t// in\n    tag_44:\n        /* \"@openzeppelin/contracts/access/Ownable.sol\":1831:1932  function renounceOwnership() public virtual onlyOwner {... */\n      jump\t// out\n        /* \"@openzeppelin/contracts/access/Ownable.sol\":1201:1286  function owner() public view virtual returns (address) {... */\n    tag_19:\n        /* \"@openzeppelin/contracts/access/Ownable.sol\":1247:1254  address */\n      0x00\n        /* \"@openzeppelin/contracts/access/Ownable.sol\":1273:1279  _owner */\n      dup1\n      0x00\n      swap1\n      sload\n      swap1\n      0x0100\n      exp\n      swap1\n      div\n      0xffffffffffffffffffffffffffffffffffffffff\n      and\n        /* \"@openzeppelin/contracts/access/Ownable.sol\":1266:1279  return _owner */\n      swap1\n      pop\n        /* \"@openzeppelin/contracts/access/Ownable.sol\":1201:1286  function owner() public view virtual returns (address) {... */\n      swap1\n      jump\t// out\n        /* \"contracts/AconomyFee.sol\":187:221  address public AconomyOwnerAddress */\n    tag_22:\n      0x01\n      0x00\n      swap1\n      sload\n      swap1\n      0x0100\n      exp\n      swap1\n      div\n      0xffffffffffffffffffffffffffffffffffffffff\n      and\n      dup2\n      jump\t// out\n        /* \"contracts/AconomyFee.sol\":156:181  uint16 public _AconomyFee */\n    tag_25:\n      0x00\n      0x14\n      swap1\n      sload\n      swap1\n      0x0100\n      exp\n      swap1\n      div\n      0xffff\n      and\n      dup2\n      jump\t// out\n        /* \"contracts/AconomyFee.sol\":284:379  function protocolFee() public view virtual returns (uint16) {... */\n    tag_29:\n        /* \"contracts/AconomyFee.sol\":336:342  uint16 */\n      0x00\n        /* \"contracts/AconomyFee.sol\":361:372  _AconomyFee */\n      dup1\n      0x14\n      swap1\n      sload\n      swap1\n      0x0100\n      exp\n      swap1\n      div\n      0xffff\n      and\n        /* \"contracts/AconomyFee.sol\":354:372  return _AconomyFee */\n      swap1\n      pop\n        /* \"contracts/AconomyFee.sol\":284:379  function protocolFee() public view virtual returns (uint16) {... */\n      swap1\n      jump\t// out\n        /* \"contracts/AconomyFee.sol\":540:847  function setProtocolFee(uint16 newFee) public virtual onlyOwner {... */\n    tag_34:\n        /* \"@openzeppelin/contracts/access/Ownable.sol\":1094:1107  _checkOwner() */\n      tag_49\n        /* \"@openzeppelin/contracts/access/Ownable.sol\":1094:1105  _checkOwner */\n      tag_42\n        /* \"@openzeppelin/contracts/access/Ownable.sol\":1094:1107  _checkOwner() */\n      jump\t// in\n    tag_49:\n        /* \"contracts/AconomyFee.sol\":636:646  msg.sender */\n      caller\n        /* \"contracts/AconomyFee.sol\":614:633  AconomyOwnerAddress */\n      0x01\n      0x00\n        /* \"contracts/AconomyFee.sol\":614:646  AconomyOwnerAddress = msg.sender */\n      0x0100\n      exp\n      dup2\n      sload\n      dup2\n      0xffffffffffffffffffffffffffffffffffffffff\n      mul\n      not\n      and\n      swap1\n      dup4\n      0xffffffffffffffffffffffffffffffffffffffff\n      and\n      mul\n      or\n      swap1\n      sstore\n      pop\n        /* \"contracts/AconomyFee.sol\":709:720  _AconomyFee */\n      0x00\n      0x14\n      swap1\n      sload\n      swap1\n      0x0100\n      exp\n      swap1\n      div\n      0xffff\n      and\n        /* \"contracts/AconomyFee.sol\":699:720  newFee == _AconomyFee */\n      0xffff\n      and\n        /* \"contracts/AconomyFee.sol\":699:705  newFee */\n      dup2\n        /* \"contracts/AconomyFee.sol\":699:720  newFee == _AconomyFee */\n      0xffff\n      and\n      eq\n        /* \"contracts/AconomyFee.sol\":695:729  if (newFee == _AconomyFee) return; */\n      iszero\n      tag_51\n      jumpi\n        /* \"contracts/AconomyFee.sol\":722:729  return; */\n      jump(tag_50)\n        /* \"contracts/AconomyFee.sol\":695:729  if (newFee == _AconomyFee) return; */\n    tag_51:\n        /* \"contracts/AconomyFee.sol\":739:752  uint16 oldFee */\n      0x00\n        /* \"contracts/AconomyFee.sol\":755:766  _AconomyFee */\n      dup1\n      0x14\n      swap1\n      sload\n      swap1\n      0x0100\n      exp\n      swap1\n      div\n      0xffff\n      and\n        /* \"contracts/AconomyFee.sol\":739:766  uint16 oldFee = _AconomyFee */\n      swap1\n      pop\n        /* \"contracts/AconomyFee.sol\":790:796  newFee */\n      dup2\n        /* \"contracts/AconomyFee.sol\":776:787  _AconomyFee */\n      0x00\n      0x14\n        /* \"contracts/AconomyFee.sol\":776:796  _AconomyFee = newFee */\n      0x0100\n      exp\n      dup2\n      sload\n      dup2\n      0xffff\n      mul\n      not\n      and\n      swap1\n      dup4\n      0xffff\n      and\n      mul\n      or\n      swap1\n      sstore\n      pop\n        /* \"contracts/AconomyFee.sol\":811:840  SetAconomyFee(newFee, oldFee) */\n      0x42844807f1f2d558d424268b6755d861b25ada531856444ccd87f17e2c4273f7\n        /* \"contracts/AconomyFee.sol\":825:831  newFee */\n      dup3\n        /* \"contracts/AconomyFee.sol\":833:839  oldFee */\n      dup3\n        /* \"contracts/AconomyFee.sol\":811:840  SetAconomyFee(newFee, oldFee) */\n      mload(0x40)\n      tag_52\n      swap3\n      swap2\n      swap1\n      tag_53\n      jump\t// in\n    tag_52:\n      mload(0x40)\n      dup1\n      swap2\n      sub\n      swap1\n      log1\n        /* \"@openzeppelin/contracts/access/Ownable.sol\":1117:1118  _ */\n      pop\n    tag_50:\n        /* \"contracts/AconomyFee.sol\":540:847  function setProtocolFee(uint16 newFee) public virtual onlyOwner {... */\n      pop\n      jump\t// out\n        /* \"@openzeppelin/contracts/access/Ownable.sol\":2081:2279  function transferOwnership(address newOwner) public virtual onlyOwner {... */\n    tag_38:\n        /* \"@openzeppelin/contracts/access/Ownable.sol\":1094:1107  _checkOwner() */\n      tag_55\n        /* \"@openzeppelin/contracts/access/Ownable.sol\":1094:1105  _checkOwner */\n      tag_42\n        /* \"@openzeppelin/contracts/access/Ownable.sol\":1094:1107  _checkOwner() */\n      jump\t// in\n    tag_55:\n        /* \"@openzeppelin/contracts/access/Ownable.sol\":2189:2190  0 */\n      0x00\n        /* \"@openzeppelin/contracts/access/Ownable.sol\":2169:2191  newOwner != address(0) */\n      0xffffffffffffffffffffffffffffffffffffffff\n      and\n        /* \"@openzeppelin/contracts/access/Ownable.sol\":2169:2177  newOwner */\n      dup2\n        /* \"@openzeppelin/contracts/access/Ownable.sol\":2169:2191  newOwner != address(0) */\n      0xffffffffffffffffffffffffffffffffffffffff\n      and\n      eq\n      iszero\n        /* \"@openzeppelin/contracts/access/Ownable.sol\":2161:2234  require(newOwner != address(0), \"Ownable: new owner is the zero address\") */\n      tag_57\n      jumpi\n      mload(0x40)\n      0x08c379a000000000000000000000000000000000000000000000000000000000\n      dup2\n      mstore\n      0x04\n      add\n      tag_58\n      swap1\n      tag_59\n      jump\t// in\n    tag_58:\n      mload(0x40)\n      dup1\n      swap2\n      sub\n      swap1\n      revert\n    tag_57:\n        /* \"@openzeppelin/contracts/access/Ownable.sol\":2244:2272  _transferOwnership(newOwner) */\n      tag_60\n        /* \"@openzeppelin/contracts/access/Ownable.sol\":2263:2271  newOwner */\n      dup2\n        /* \"@openzeppelin/contracts/access/Ownable.sol\":2244:2262  _transferOwnership */\n      tag_45\n        /* \"@openzeppelin/contracts/access/Ownable.sol\":2244:2272  _transferOwnership(newOwner) */\n      jump\t// in\n    tag_60:\n        /* \"@openzeppelin/contracts/access/Ownable.sol\":2081:2279  function transferOwnership(address newOwner) public virtual onlyOwner {... */\n      pop\n      jump\t// out\n        /* \"@openzeppelin/contracts/access/Ownable.sol\":1359:1489  function _checkOwner() internal view virtual {... */\n    tag_42:\n        /* \"@openzeppelin/contracts/access/Ownable.sol\":1433:1445  _msgSender() */\n      tag_62\n        /* \"@openzeppelin/contracts/access/Ownable.sol\":1433:1443  _msgSender */\n      tag_63\n        /* \"@openzeppelin/contracts/access/Ownable.sol\":1433:1445  _msgSender() */\n      jump\t// in\n    tag_62:\n        /* \"@openzeppelin/contracts/access/Ownable.sol\":1422:1445  owner() == _msgSender() */\n      0xffffffffffffffffffffffffffffffffffffffff\n      and\n        /* \"@openzeppelin/contracts/access/Ownable.sol\":1422:1429  owner() */\n      tag_64\n        /* \"@openzeppelin/contracts/access/Ownable.sol\":1422:1427  owner */\n      tag_19\n        /* \"@openzeppelin/contracts/access/Ownable.sol\":1422:1429  owner() */\n      jump\t// in\n    tag_64:\n        /* \"@openzeppelin/contracts/access/Ownable.sol\":1422:1445  owner() == _msgSender() */\n      0xffffffffffffffffffffffffffffffffffffffff\n      and\n      eq\n        /* \"@openzeppelin/contracts/access/Ownable.sol\":1414:1482  require(owner() == _msgSender(), \"Ownable: caller is not the owner\") */\n      tag_65\n      jumpi\n      mload(0x40)\n      0x08c379a000000000000000000000000000000000000000000000000000000000\n      dup2\n      mstore\n      0x04\n      add\n      tag_66\n      swap1\n      tag_67\n      jump\t// in\n    tag_66:\n      mload(0x40)\n      dup1\n      swap2\n      sub\n      swap1\n      revert\n    tag_65:\n        /* \"@openzeppelin/contracts/access/Ownable.sol\":1359:1489  function _checkOwner() internal view virtual {... */\n      jump\t// out\n        /* \"@openzeppelin/contracts/access/Ownable.sol\":2433:2620  function _transferOwnership(address newOwner) internal virtual {... */\n    tag_45:\n        /* \"@openzeppelin/contracts/access/Ownable.sol\":2506:2522  address oldOwner */\n      0x00\n        /* \"@openzeppelin/contracts/access/Ownable.sol\":2525:2531  _owner */\n      dup1\n      0x00\n      swap1\n      sload\n      swap1\n      0x0100\n      exp\n      swap1\n      div\n      0xffffffffffffffffffffffffffffffffffffffff\n      and\n        /* \"@openzeppelin/contracts/access/Ownable.sol\":2506:2531  address oldOwner = _owner */\n      swap1\n      pop\n        /* \"@openzeppelin/contracts/access/Ownable.sol\":2550:2558  newOwner */\n      dup2\n        /* \"@openzeppelin/contracts/access/Ownable.sol\":2541:2547  _owner */\n      0x00\n      dup1\n        /* \"@openzeppelin/contracts/access/Ownable.sol\":2541:2558  _owner = newOwner */\n      0x0100\n      exp\n      dup2\n      sload\n      dup2\n      0xffffffffffffffffffffffffffffffffffffffff\n      mul\n      not\n      and\n      swap1\n      dup4\n      0xffffffffffffffffffffffffffffffffffffffff\n      and\n      mul\n      or\n      swap1\n      sstore\n      pop\n        /* \"@openzeppelin/contracts/access/Ownable.sol\":2604:2612  newOwner */\n      dup2\n        /* \"@openzeppelin/contracts/access/Ownable.sol\":2573:2613  OwnershipTransferred(oldOwner, newOwner) */\n      0xffffffffffffffffffffffffffffffffffffffff\n      and\n        /* \"@openzeppelin/contracts/access/Ownable.sol\":2594:2602  oldOwner */\n      dup2\n        /* \"@openzeppelin/contracts/access/Ownable.sol\":2573:2613  OwnershipTransferred(oldOwner, newOwner) */\n      0xffffffffffffffffffffffffffffffffffffffff\n      and\n      0x8be0079c531659141344cd1fd0a4f28419497f9722a3daafe3b4186f6b6457e0\n      mload(0x40)\n      mload(0x40)\n      dup1\n      swap2\n      sub\n      swap1\n      log3\n        /* \"@openzeppelin/contracts/access/Ownable.sol\":2433:2620  function _transferOwnership(address newOwner) internal virtual {... */\n      pop\n      pop\n      jump\t// out\n        /* \"@openzeppelin/contracts/utils/Context.sol\":640:736  function _msgSender() internal view virtual returns (address) {... */\n    tag_63:\n        /* \"@openzeppelin/contracts/utils/Context.sol\":693:700  address */\n      0x00\n        /* \"@openzeppelin/contracts/utils/Context.sol\":719:729  msg.sender */\n      caller\n        /* \"@openzeppelin/contracts/utils/Context.sol\":712:729  return msg.sender */\n      swap1\n      pop\n        /* \"@openzeppelin/contracts/utils/Context.sol\":640:736  function _msgSender() internal view virtual returns (address) {... */\n      swap1\n      jump\t// out\n        /* \"#utility.yul\":7:146   */\n    tag_71:\n      0x00\n        /* \"#utility.yul\":91:97   */\n      dup2\n        /* \"#utility.yul\":78:98   */\n      calldataload\n        /* \"#utility.yul\":69:98   */\n      swap1\n      pop\n        /* \"#utility.yul\":107:140   */\n      tag_73\n        /* \"#utility.yul\":134:139   */\n      dup2\n        /* \"#utility.yul\":107:140   */\n      tag_74\n      jump\t// in\n    tag_73:\n        /* \"#utility.yul\":59:146   */\n      swap3\n      swap2\n      pop\n      pop\n      jump\t// out\n        /* \"#utility.yul\":152:289   */\n    tag_75:\n      0x00\n        /* \"#utility.yul\":235:241   */\n      dup2\n        /* \"#utility.yul\":222:242   */\n      calldataload\n        /* \"#utility.yul\":213:242   */\n      swap1\n      pop\n        /* \"#utility.yul\":251:283   */\n      tag_77\n        /* \"#utility.yul\":277:282   */\n      dup2\n        /* \"#utility.yul\":251:283   */\n      tag_78\n      jump\t// in\n    tag_77:\n        /* \"#utility.yul\":203:289   */\n      swap3\n      swap2\n      pop\n      pop\n      jump\t// out\n        /* \"#utility.yul\":295:557   */\n    tag_37:\n      0x00\n        /* \"#utility.yul\":403:405   */\n      0x20\n        /* \"#utility.yul\":391:400   */\n      dup3\n        /* \"#utility.yul\":382:389   */\n      dup5\n        /* \"#utility.yul\":378:401   */\n      sub\n        /* \"#utility.yul\":374:406   */\n      slt\n        /* \"#utility.yul\":371:373   */\n      iszero\n      tag_80\n      jumpi\n        /* \"#utility.yul\":419:420   */\n      0x00\n        /* \"#utility.yul\":416:417   */\n      dup1\n        /* \"#utility.yul\":409:421   */\n      revert\n        /* \"#utility.yul\":371:373   */\n    tag_80:\n        /* \"#utility.yul\":462:463   */\n      0x00\n        /* \"#utility.yul\":487:540   */\n      tag_81\n        /* \"#utility.yul\":532:539   */\n      dup5\n        /* \"#utility.yul\":523:529   */\n      dup3\n        /* \"#utility.yul\":512:521   */\n      dup6\n        /* \"#utility.yul\":508:530   */\n      add\n        /* \"#utility.yul\":487:540   */\n      tag_71\n      jump\t// in\n    tag_81:\n        /* \"#utility.yul\":477:540   */\n      swap2\n      pop\n        /* \"#utility.yul\":433:550   */\n      pop\n        /* \"#utility.yul\":361:557   */\n      swap3\n      swap2\n      pop\n      pop\n      jump\t// out\n        /* \"#utility.yul\":563:823   */\n    tag_33:\n      0x00\n        /* \"#utility.yul\":670:672   */\n      0x20\n        /* \"#utility.yul\":658:667   */\n      dup3\n        /* \"#utility.yul\":649:656   */\n      dup5\n        /* \"#utility.yul\":645:668   */\n      sub\n        /* \"#utility.yul\":641:673   */\n      slt\n        /* \"#utility.yul\":638:640   */\n      iszero\n      tag_83\n      jumpi\n        /* \"#utility.yul\":686:687   */\n      0x00\n        /* \"#utility.yul\":683:684   */\n      dup1\n        /* \"#utility.yul\":676:688   */\n      revert\n        /* \"#utility.yul\":638:640   */\n    tag_83:\n        /* \"#utility.yul\":729:730   */\n      0x00\n        /* \"#utility.yul\":754:806   */\n      tag_84\n        /* \"#utility.yul\":798:805   */\n      dup5\n        /* \"#utility.yul\":789:795   */\n      dup3\n        /* \"#utility.yul\":778:787   */\n      dup6\n        /* \"#utility.yul\":774:796   */\n      add\n        /* \"#utility.yul\":754:806   */\n      tag_75\n      jump\t// in\n    tag_84:\n        /* \"#utility.yul\":744:806   */\n      swap2\n      pop\n        /* \"#utility.yul\":700:816   */\n      pop\n        /* \"#utility.yul\":628:823   */\n      swap3\n      swap2\n      pop\n      pop\n      jump\t// out\n        /* \"#utility.yul\":829:947   */\n    tag_85:\n        /* \"#utility.yul\":916:940   */\n      tag_87\n        /* \"#utility.yul\":934:939   */\n      dup2\n        /* \"#utility.yul\":916:940   */\n      tag_88\n      jump\t// in\n    tag_87:\n        /* \"#utility.yul\":911:914   */\n      dup3\n        /* \"#utility.yul\":904:941   */\n      mstore\n        /* \"#utility.yul\":894:947   */\n      pop\n      pop\n      jump\t// out\n        /* \"#utility.yul\":953:1319   */\n    tag_89:\n      0x00\n        /* \"#utility.yul\":1116:1183   */\n      tag_91\n        /* \"#utility.yul\":1180:1182   */\n      0x26\n        /* \"#utility.yul\":1175:1178   */\n      dup4\n        /* \"#utility.yul\":1116:1183   */\n      tag_92\n      jump\t// in\n    tag_91:\n        /* \"#utility.yul\":1109:1183   */\n      swap2\n      pop\n        /* \"#utility.yul\":1192:1285   */\n      tag_93\n        /* \"#utility.yul\":1281:1284   */\n      dup3\n        /* \"#utility.yul\":1192:1285   */\n      tag_94\n      jump\t// in\n    tag_93:\n        /* \"#utility.yul\":1310:1312   */\n      0x40\n        /* \"#utility.yul\":1305:1308   */\n      dup3\n        /* \"#utility.yul\":1301:1313   */\n      add\n        /* \"#utility.yul\":1294:1313   */\n      swap1\n      pop\n        /* \"#utility.yul\":1099:1319   */\n      swap2\n      swap1\n      pop\n      jump\t// out\n        /* \"#utility.yul\":1325:1691   */\n    tag_95:\n      0x00\n        /* \"#utility.yul\":1488:1555   */\n      tag_97\n        /* \"#utility.yul\":1552:1554   */\n      0x20\n        /* \"#utility.yul\":1547:1550   */\n      dup4\n        /* \"#utility.yul\":1488:1555   */\n      tag_92\n      jump\t// in\n    tag_97:\n        /* \"#utility.yul\":1481:1555   */\n      swap2\n      pop\n        /* \"#utility.yul\":1564:1657   */\n      tag_98\n        /* \"#utility.yul\":1653:1656   */\n      dup3\n        /* \"#utility.yul\":1564:1657   */\n      tag_99\n      jump\t// in\n    tag_98:\n        /* \"#utility.yul\":1682:1684   */\n      0x20\n        /* \"#utility.yul\":1677:1680   */\n      dup3\n        /* \"#utility.yul\":1673:1685   */\n      add\n        /* \"#utility.yul\":1666:1685   */\n      swap1\n      pop\n        /* \"#utility.yul\":1471:1691   */\n      swap2\n      swap1\n      pop\n      jump\t// out\n        /* \"#utility.yul\":1697:1812   */\n    tag_100:\n        /* \"#utility.yul\":1782:1805   */\n      tag_102\n        /* \"#utility.yul\":1799:1804   */\n      dup2\n        /* \"#utility.yul\":1782:1805   */\n      tag_103\n      jump\t// in\n    tag_102:\n        /* \"#utility.yul\":1777:1780   */\n      dup3\n        /* \"#utility.yul\":1770:1806   */\n      mstore\n        /* \"#utility.yul\":1760:1812   */\n      pop\n      pop\n      jump\t// out\n        /* \"#utility.yul\":1818:2040   */\n    tag_15:\n      0x00\n        /* \"#utility.yul\":1949:1951   */\n      0x20\n        /* \"#utility.yul\":1938:1947   */\n      dup3\n        /* \"#utility.yul\":1934:1952   */\n      add\n        /* \"#utility.yul\":1926:1952   */\n      swap1\n      pop\n        /* \"#utility.yul\":1962:2033   */\n      tag_105\n        /* \"#utility.yul\":2030:2031   */\n      0x00\n        /* \"#utility.yul\":2019:2028   */\n      dup4\n        /* \"#utility.yul\":2015:2032   */\n      add\n        /* \"#utility.yul\":2006:2012   */\n      dup5\n        /* \"#utility.yul\":1962:2033   */\n      tag_85\n      jump\t// in\n    tag_105:\n        /* \"#utility.yul\":1916:2040   */\n      swap3\n      swap2\n      pop\n      pop\n      jump\t// out\n        /* \"#utility.yul\":2046:2465   */\n    tag_59:\n      0x00\n        /* \"#utility.yul\":2250:2252   */\n      0x20\n        /* \"#utility.yul\":2239:2248   */\n      dup3\n        /* \"#utility.yul\":2235:2253   */\n      add\n        /* \"#utility.yul\":2227:2253   */\n      swap1\n      pop\n        /* \"#utility.yul\":2299:2308   */\n      dup2\n        /* \"#utility.yul\":2293:2297   */\n      dup2\n        /* \"#utility.yul\":2289:2309   */\n      sub\n        /* \"#utility.yul\":2285:2286   */\n      0x00\n        /* \"#utility.yul\":2274:2283   */\n      dup4\n        /* \"#utility.yul\":2270:2287   */\n      add\n        /* \"#utility.yul\":2263:2310   */\n      mstore\n        /* \"#utility.yul\":2327:2458   */\n      tag_107\n        /* \"#utility.yul\":2453:2457   */\n      dup2\n        /* \"#utility.yul\":2327:2458   */\n      tag_89\n      jump\t// in\n    tag_107:\n        /* \"#utility.yul\":2319:2458   */\n      swap1\n      pop\n        /* \"#utility.yul\":2217:2465   */\n      swap2\n      swap1\n      pop\n      jump\t// out\n        /* \"#utility.yul\":2471:2890   */\n    tag_67:\n      0x00\n        /* \"#utility.yul\":2675:2677   */\n      0x20\n        /* \"#utility.yul\":2664:2673   */\n      dup3\n        /* \"#utility.yul\":2660:2678   */\n      add\n        /* \"#utility.yul\":2652:2678   */\n      swap1\n      pop\n        /* \"#utility.yul\":2724:2733   */\n      dup2\n        /* \"#utility.yul\":2718:2722   */\n      dup2\n        /* \"#utility.yul\":2714:2734   */\n      sub\n        /* \"#utility.yul\":2710:2711   */\n      0x00\n        /* \"#utility.yul\":2699:2708   */\n      dup4\n        /* \"#utility.yul\":2695:2712   */\n      add\n        /* \"#utility.yul\":2688:2735   */\n      mstore\n        /* \"#utility.yul\":2752:2883   */\n      tag_109\n        /* \"#utility.yul\":2878:2882   */\n      dup2\n        /* \"#utility.yul\":2752:2883   */\n      tag_95\n      jump\t// in\n    tag_109:\n        /* \"#utility.yul\":2744:2883   */\n      swap1\n      pop\n        /* \"#utility.yul\":2642:2890   */\n      swap2\n      swap1\n      pop\n      jump\t// out\n        /* \"#utility.yul\":2896:3114   */\n    tag_27:\n      0x00\n        /* \"#utility.yul\":3025:3027   */\n      0x20\n        /* \"#utility.yul\":3014:3023   */\n      dup3\n        /* \"#utility.yul\":3010:3028   */\n      add\n        /* \"#utility.yul\":3002:3028   */\n      swap1\n      pop\n        /* \"#utility.yul\":3038:3107   */\n      tag_111\n        /* \"#utility.yul\":3104:3105   */\n      0x00\n        /* \"#utility.yul\":3093:3102   */\n      dup4\n        /* \"#utility.yul\":3089:3106   */\n      add\n        /* \"#utility.yul\":3080:3086   */\n      dup5\n        /* \"#utility.yul\":3038:3107   */\n      tag_100\n      jump\t// in\n    tag_111:\n        /* \"#utility.yul\":2992:3114   */\n      swap3\n      swap2\n      pop\n      pop\n      jump\t// out\n        /* \"#utility.yul\":3120:3444   */\n    tag_53:\n      0x00\n        /* \"#utility.yul\":3275:3277   */\n      0x40\n        /* \"#utility.yul\":3264:3273   */\n      dup3\n        /* \"#utility.yul\":3260:3278   */\n      add\n        /* \"#utility.yul\":3252:3278   */\n      swap1\n      pop\n        /* \"#utility.yul\":3288:3357   */\n      tag_113\n        /* \"#utility.yul\":3354:3355   */\n      0x00\n        /* \"#utility.yul\":3343:3352   */\n      dup4\n        /* \"#utility.yul\":3339:3356   */\n      add\n        /* \"#utility.yul\":3330:3336   */\n      dup6\n        /* \"#utility.yul\":3288:3357   */\n      tag_100\n      jump\t// in\n    tag_113:\n        /* \"#utility.yul\":3367:3437   */\n      tag_114\n        /* \"#utility.yul\":3433:3435   */\n      0x20\n        /* \"#utility.yul\":3422:3431   */\n      dup4\n        /* \"#utility.yul\":3418:3436   */\n      add\n        /* \"#utility.yul\":3409:3415   */\n      dup5\n        /* \"#utility.yul\":3367:3437   */\n      tag_100\n      jump\t// in\n    tag_114:\n        /* \"#utility.yul\":3242:3444   */\n      swap4\n      swap3\n      pop\n      pop\n      pop\n      jump\t// out\n        /* \"#utility.yul\":3450:3619   */\n    tag_92:\n      0x00\n        /* \"#utility.yul\":3568:3574   */\n      dup3\n        /* \"#utility.yul\":3563:3566   */\n      dup3\n        /* \"#utility.yul\":3556:3575   */\n      mstore\n        /* \"#utility.yul\":3608:3612   */\n      0x20\n        /* \"#utility.yul\":3603:3606   */\n      dup3\n        /* \"#utility.yul\":3599:3613   */\n      add\n        /* \"#utility.yul\":3584:3613   */\n      swap1\n      pop\n        /* \"#utility.yul\":3546:3619   */\n      swap3\n      swap2\n      pop\n      pop\n      jump\t// out\n        /* \"#utility.yul\":3625:3721   */\n    tag_88:\n      0x00\n        /* \"#utility.yul\":3691:3715   */\n      tag_117\n        /* \"#utility.yul\":3709:3714   */\n      dup3\n        /* \"#utility.yul\":3691:3715   */\n      tag_118\n      jump\t// in\n    tag_117:\n        /* \"#utility.yul\":3680:3715   */\n      swap1\n      pop\n        /* \"#utility.yul\":3670:3721   */\n      swap2\n      swap1\n      pop\n      jump\t// out\n        /* \"#utility.yul\":3727:3816   */\n    tag_103:\n      0x00\n        /* \"#utility.yul\":3803:3809   */\n      0xffff\n        /* \"#utility.yul\":3796:3801   */\n      dup3\n        /* \"#utility.yul\":3792:3810   */\n      and\n        /* \"#utility.yul\":3781:3810   */\n      swap1\n      pop\n        /* \"#utility.yul\":3771:3816   */\n      swap2\n      swap1\n      pop\n      jump\t// out\n        /* \"#utility.yul\":3822:3948   */\n    tag_118:\n      0x00\n        /* \"#utility.yul\":3899:3941   */\n      0xffffffffffffffffffffffffffffffffffffffff\n        /* \"#utility.yul\":3892:3897   */\n      dup3\n        /* \"#utility.yul\":3888:3942   */\n      and\n        /* \"#utility.yul\":3877:3942   */\n      swap1\n      pop\n        /* \"#utility.yul\":3867:3948   */\n      swap2\n      swap1\n      pop\n      jump\t// out\n        /* \"#utility.yul\":3954:4179   */\n    tag_94:\n        /* \"#utility.yul\":4094:4128   */\n      0x4f776e61626c653a206e6577206f776e657220697320746865207a65726f2061\n        /* \"#utility.yul\":4090:4091   */\n      0x00\n        /* \"#utility.yul\":4082:4088   */\n      dup3\n        /* \"#utility.yul\":4078:4092   */\n      add\n        /* \"#utility.yul\":4071:4129   */\n      mstore\n        /* \"#utility.yul\":4163:4171   */\n      0x6464726573730000000000000000000000000000000000000000000000000000\n        /* \"#utility.yul\":4158:4160   */\n      0x20\n        /* \"#utility.yul\":4150:4156   */\n      dup3\n        /* \"#utility.yul\":4146:4161   */\n      add\n        /* \"#utility.yul\":4139:4172   */\n      mstore\n        /* \"#utility.yul\":4060:4179   */\n      pop\n      jump\t// out\n        /* \"#utility.yul\":4185:4367   */\n    tag_99:\n        /* \"#utility.yul\":4325:4359   */\n      0x4f776e61626c653a2063616c6c6572206973206e6f7420746865206f776e6572\n        /* \"#utility.yul\":4321:4322   */\n      0x00\n        /* \"#utility.yul\":4313:4319   */\n      dup3\n        /* \"#utility.yul\":4309:4323   */\n      add\n        /* \"#utility.yul\":4302:4360   */\n      mstore\n        /* \"#utility.yul\":4291:4367   */\n      pop\n      jump\t// out\n        /* \"#utility.yul\":4373:4495   */\n    tag_74:\n        /* \"#utility.yul\":4446:4470   */\n      tag_124\n        /* \"#utility.yul\":4464:4469   */\n      dup2\n        /* \"#utility.yul\":4446:4470   */\n      tag_88\n      jump\t// in\n    tag_124:\n        /* \"#utility.yul\":4439:4444   */\n      dup2\n        /* \"#utility.yul\":4436:4471   */\n      eq\n        /* \"#utility.yul\":4426:4428   */\n      tag_125\n      jumpi\n        /* \"#utility.yul\":4485:4486   */\n      0x00\n        /* \"#utility.yul\":4482:4483   */\n      dup1\n        /* \"#utility.yul\":4475:4487   */\n      revert\n        /* \"#utility.yul\":4426:4428   */\n    tag_125:\n        /* \"#utility.yul\":4416:4495   */\n      pop\n      jump\t// out\n        /* \"#utility.yul\":4501:4621   */\n    tag_78:\n        /* \"#utility.yul\":4573:4596   */\n      tag_127\n        /* \"#utility.yul\":4590:4595   */\n      dup2\n        /* \"#utility.yul\":4573:4596   */\n      tag_103\n      jump\t// in\n    tag_127:\n        /* \"#utility.yul\":4566:4571   */\n      dup2\n        /* \"#utility.yul\":4563:4597   */\n      eq\n        /* \"#utility.yul\":4553:4555   */\n      tag_128\n      jumpi\n        /* \"#utility.yul\":4611:4612   */\n      0x00\n        /* \"#utility.yul\":4608:4609   */\n      dup1\n        /* \"#utility.yul\":4601:4613   */\n      revert\n        /* \"#utility.yul\":4553:4555   */\n    tag_128:\n        /* \"#utility.yul\":4543:4621   */\n      pop\n      jump\t// out\n\n    auxdata: 0xa2646970667358221220c926ae0df154990b2d8c0d33ef43e2b7306482a00852e9fc6e4e65f4f33d2db664736f6c63430008020033\n}\n",
				"bytecode": {
					"linkReferences": {},
					"object": "608060405234801561001057600080fd5b5061002d61002261003260201b60201c565b61003a60201b60201c565b6100fe565b600033905090565b60008060009054906101000a900473ffffffffffffffffffffffffffffffffffffffff169050816000806101000a81548173ffffffffffffffffffffffffffffffffffffffff021916908373ffffffffffffffffffffffffffffffffffffffff1602179055508173ffffffffffffffffffffffffffffffffffffffff168173ffffffffffffffffffffffffffffffffffffffff167f8be0079c531659141344cd1fd0a4f28419497f9722a3daafe3b4186f6b6457e060405160405180910390a35050565b6107748061010d6000396000f3fe608060405234801561001057600080fd5b50600436106100885760003560e01c80639a3d4ae61161005b5780639a3d4ae6146100f1578063b0e21e8a1461010f578063e4467f351461012d578063f2fde38b1461014957610088565b80634dd9ccb11461008d578063715018a6146100ab5780638da5cb5b146100b5578063951f9c5b146100d3575b600080fd5b610095610165565b6040516100a291906105a8565b60405180910390f35b6100b361018f565b005b6100bd6101a3565b6040516100ca91906105a8565b60405180910390f35b6100db6101cc565b6040516100e891906105a8565b60405180910390f35b6100f96101f2565b6040516101069190610603565b60405180910390f35b610117610206565b6040516101249190610603565b60405180910390f35b6101476004803603810190610142919061051b565b61021d565b005b610163600480360381019061015e91906104f2565b6102fa565b005b6000600160009054906101000a900473ffffffffffffffffffffffffffffffffffffffff16905090565b61019761037e565b6101a160006103fc565b565b60008060009054906101000a900473ffffffffffffffffffffffffffffffffffffffff16905090565b600160009054906101000a900473ffffffffffffffffffffffffffffffffffffffff1681565b600060149054906101000a900461ffff1681565b60008060149054906101000a900461ffff16905090565b61022561037e565b33600160006101000a81548173ffffffffffffffffffffffffffffffffffffffff021916908373ffffffffffffffffffffffffffffffffffffffff160217905550600060149054906101000a900461ffff1661ffff168161ffff16141561028b576102f7565b60008060149054906101000a900461ffff16905081600060146101000a81548161ffff021916908361ffff1602179055507f42844807f1f2d558d424268b6755d861b25ada531856444ccd87f17e2c4273f782826040516102ed92919061061e565b60405180910390a1505b50565b61030261037e565b600073ffffffffffffffffffffffffffffffffffffffff168173ffffffffffffffffffffffffffffffffffffffff161415610372576040517f08c379a0000000000000000000000000000000000000000000000000000000008152600401610369906105c3565b60405180910390fd5b61037b816103fc565b50565b6103866104c0565b73ffffffffffffffffffffffffffffffffffffffff166103a46101a3565b73ffffffffffffffffffffffffffffffffffffffff16146103fa576040517f08c379a00000000000000000000000000000000000000000000000000000000081526004016103f1906105e3565b60405180910390fd5b565b60008060009054906101000a900473ffffffffffffffffffffffffffffffffffffffff169050816000806101000a81548173ffffffffffffffffffffffffffffffffffffffff021916908373ffffffffffffffffffffffffffffffffffffffff1602179055508173ffffffffffffffffffffffffffffffffffffffff168173ffffffffffffffffffffffffffffffffffffffff167f8be0079c531659141344cd1fd0a4f28419497f9722a3daafe3b4186f6b6457e060405160405180910390a35050565b600033905090565b6000813590506104d781610710565b92915050565b6000813590506104ec81610727565b92915050565b60006020828403121561050457600080fd5b6000610512848285016104c8565b91505092915050565b60006020828403121561052d57600080fd5b600061053b848285016104dd565b91505092915050565b61054d81610658565b82525050565b6000610560602683610647565b915061056b82610698565b604082019050919050565b6000610583602083610647565b915061058e826106e7565b602082019050919050565b6105a28161066a565b82525050565b60006020820190506105bd6000830184610544565b92915050565b600060208201905081810360008301526105dc81610553565b9050919050565b600060208201905081810360008301526105fc81610576565b9050919050565b60006020820190506106186000830184610599565b92915050565b60006040820190506106336000830185610599565b6106406020830184610599565b9392505050565b600082825260208201905092915050565b600061066382610678565b9050919050565b600061ffff82169050919050565b600073ffffffffffffffffffffffffffffffffffffffff82169050919050565b7f4f776e61626c653a206e6577206f776e657220697320746865207a65726f206160008201527f6464726573730000000000000000000000000000000000000000000000000000602082015250565b7f4f776e61626c653a2063616c6c6572206973206e6f7420746865206f776e6572600082015250565b61071981610658565b811461072457600080fd5b50565b6107308161066a565b811461073b57600080fd5b5056fea2646970667358221220c926ae0df154990b2d8c0d33ef43e2b7306482a00852e9fc6e4e65f4f33d2db664736f6c63430008020033",
					"opcodes": "PUSH1 0x80 PUSH1 0x40 MSTORE CALLVALUE DUP1 ISZERO PUSH2 0x10 JUMPI PUSH1 0x0 DUP1 REVERT JUMPDEST POP PUSH2 0x2D PUSH2 0x22 PUSH2 0x32 PUSH1 0x20 SHL PUSH1 0x20 SHR JUMP JUMPDEST PUSH2 0x3A PUSH1 0x20 SHL PUSH1 0x20 SHR JUMP JUMPDEST PUSH2 0xFE JUMP JUMPDEST PUSH1 0x0 CALLER SWAP1 POP SWAP1 JUMP JUMPDEST PUSH1 0x0 DUP1 PUSH1 0x0 SWAP1 SLOAD SWAP1 PUSH2 0x100 EXP SWAP1 DIV PUSH20 0xFFFFFFFFFFFFFFFFFFFFFFFFFFFFFFFFFFFFFFFF AND SWAP1 POP DUP2 PUSH1 0x0 DUP1 PUSH2 0x100 EXP DUP2 SLOAD DUP2 PUSH20 0xFFFFFFFFFFFFFFFFFFFFFFFFFFFFFFFFFFFFFFFF MUL NOT AND SWAP1 DUP4 PUSH20 0xFFFFFFFFFFFFFFFFFFFFFFFFFFFFFFFFFFFFFFFF AND MUL OR SWAP1 SSTORE POP DUP2 PUSH20 0xFFFFFFFFFFFFFFFFFFFFFFFFFFFFFFFFFFFFFFFF AND DUP2 PUSH20 0xFFFFFFFFFFFFFFFFFFFFFFFFFFFFFFFFFFFFFFFF AND PUSH32 0x8BE0079C531659141344CD1FD0A4F28419497F9722A3DAAFE3B4186F6B6457E0 PUSH1 0x40 MLOAD PUSH1 0x40 MLOAD DUP1 SWAP2 SUB SWAP1 LOG3 POP POP JUMP JUMPDEST PUSH2 0x774 DUP1 PUSH2 0x10D PUSH1 0x0 CODECOPY PUSH1 0x0 RETURN INVALID PUSH1 0x80 PUSH1 0x40 MSTORE CALLVALUE DUP1 ISZERO PUSH2 0x10 JUMPI PUSH1 0x0 DUP1 REVERT JUMPDEST POP PUSH1 0x4 CALLDATASIZE LT PUSH2 0x88 JUMPI PUSH1 0x0 CALLDATALOAD PUSH1 0xE0 SHR DUP1 PUSH4 0x9A3D4AE6 GT PUSH2 0x5B JUMPI DUP1 PUSH4 0x9A3D4AE6 EQ PUSH2 0xF1 JUMPI DUP1 PUSH4 0xB0E21E8A EQ PUSH2 0x10F JUMPI DUP1 PUSH4 0xE4467F35 EQ PUSH2 0x12D JUMPI DUP1 PUSH4 0xF2FDE38B EQ PUSH2 0x149 JUMPI PUSH2 0x88 JUMP JUMPDEST DUP1 PUSH4 0x4DD9CCB1 EQ PUSH2 0x8D JUMPI DUP1 PUSH4 0x715018A6 EQ PUSH2 0xAB JUMPI DUP1 PUSH4 0x8DA5CB5B EQ PUSH2 0xB5 JUMPI DUP1 PUSH4 0x951F9C5B EQ PUSH2 0xD3 JUMPI JUMPDEST PUSH1 0x0 DUP1 REVERT JUMPDEST PUSH2 0x95 PUSH2 0x165 JUMP JUMPDEST PUSH1 0x40 MLOAD PUSH2 0xA2 SWAP2 SWAP1 PUSH2 0x5A8 JUMP JUMPDEST PUSH1 0x40 MLOAD DUP1 SWAP2 SUB SWAP1 RETURN JUMPDEST PUSH2 0xB3 PUSH2 0x18F JUMP JUMPDEST STOP JUMPDEST PUSH2 0xBD PUSH2 0x1A3 JUMP JUMPDEST PUSH1 0x40 MLOAD PUSH2 0xCA SWAP2 SWAP1 PUSH2 0x5A8 JUMP JUMPDEST PUSH1 0x40 MLOAD DUP1 SWAP2 SUB SWAP1 RETURN JUMPDEST PUSH2 0xDB PUSH2 0x1CC JUMP JUMPDEST PUSH1 0x40 MLOAD PUSH2 0xE8 SWAP2 SWAP1 PUSH2 0x5A8 JUMP JUMPDEST PUSH1 0x40 MLOAD DUP1 SWAP2 SUB SWAP1 RETURN JUMPDEST PUSH2 0xF9 PUSH2 0x1F2 JUMP JUMPDEST PUSH1 0x40 MLOAD PUSH2 0x106 SWAP2 SWAP1 PUSH2 0x603 JUMP JUMPDEST PUSH1 0x40 MLOAD DUP1 SWAP2 SUB SWAP1 RETURN JUMPDEST PUSH2 0x117 PUSH2 0x206 JUMP JUMPDEST PUSH1 0x40 MLOAD PUSH2 0x124 SWAP2 SWAP1 PUSH2 0x603 JUMP JUMPDEST PUSH1 0x40 MLOAD DUP1 SWAP2 SUB SWAP1 RETURN JUMPDEST PUSH2 0x147 PUSH1 0x4 DUP1 CALLDATASIZE SUB DUP2 ADD SWAP1 PUSH2 0x142 SWAP2 SWAP1 PUSH2 0x51B JUMP JUMPDEST PUSH2 0x21D JUMP JUMPDEST STOP JUMPDEST PUSH2 0x163 PUSH1 0x4 DUP1 CALLDATASIZE SUB DUP2 ADD SWAP1 PUSH2 0x15E SWAP2 SWAP1 PUSH2 0x4F2 JUMP JUMPDEST PUSH2 0x2FA JUMP JUMPDEST STOP JUMPDEST PUSH1 0x0 PUSH1 0x1 PUSH1 0x0 SWAP1 SLOAD SWAP1 PUSH2 0x100 EXP SWAP1 DIV PUSH20 0xFFFFFFFFFFFFFFFFFFFFFFFFFFFFFFFFFFFFFFFF AND SWAP1 POP SWAP1 JUMP JUMPDEST PUSH2 0x197 PUSH2 0x37E JUMP JUMPDEST PUSH2 0x1A1 PUSH1 0x0 PUSH2 0x3FC JUMP JUMPDEST JUMP JUMPDEST PUSH1 0x0 DUP1 PUSH1 0x0 SWAP1 SLOAD SWAP1 PUSH2 0x100 EXP SWAP1 DIV PUSH20 0xFFFFFFFFFFFFFFFFFFFFFFFFFFFFFFFFFFFFFFFF AND SWAP1 POP SWAP1 JUMP JUMPDEST PUSH1 0x1 PUSH1 0x0 SWAP1 SLOAD SWAP1 PUSH2 0x100 EXP SWAP1 DIV PUSH20 0xFFFFFFFFFFFFFFFFFFFFFFFFFFFFFFFFFFFFFFFF AND DUP2 JUMP JUMPDEST PUSH1 0x0 PUSH1 0x14 SWAP1 SLOAD SWAP1 PUSH2 0x100 EXP SWAP1 DIV PUSH2 0xFFFF AND DUP2 JUMP JUMPDEST PUSH1 0x0 DUP1 PUSH1 0x14 SWAP1 SLOAD SWAP1 PUSH2 0x100 EXP SWAP1 DIV PUSH2 0xFFFF AND SWAP1 POP SWAP1 JUMP JUMPDEST PUSH2 0x225 PUSH2 0x37E JUMP JUMPDEST CALLER PUSH1 0x1 PUSH1 0x0 PUSH2 0x100 EXP DUP2 SLOAD DUP2 PUSH20 0xFFFFFFFFFFFFFFFFFFFFFFFFFFFFFFFFFFFFFFFF MUL NOT AND SWAP1 DUP4 PUSH20 0xFFFFFFFFFFFFFFFFFFFFFFFFFFFFFFFFFFFFFFFF AND MUL OR SWAP1 SSTORE POP PUSH1 0x0 PUSH1 0x14 SWAP1 SLOAD SWAP1 PUSH2 0x100 EXP SWAP1 DIV PUSH2 0xFFFF AND PUSH2 0xFFFF AND DUP2 PUSH2 0xFFFF AND EQ ISZERO PUSH2 0x28B JUMPI PUSH2 0x2F7 JUMP JUMPDEST PUSH1 0x0 DUP1 PUSH1 0x14 SWAP1 SLOAD SWAP1 PUSH2 0x100 EXP SWAP1 DIV PUSH2 0xFFFF AND SWAP1 POP DUP2 PUSH1 0x0 PUSH1 0x14 PUSH2 0x100 EXP DUP2 SLOAD DUP2 PUSH2 0xFFFF MUL NOT AND SWAP1 DUP4 PUSH2 0xFFFF AND MUL OR SWAP1 SSTORE POP PUSH32 0x42844807F1F2D558D424268B6755D861B25ADA531856444CCD87F17E2C4273F7 DUP3 DUP3 PUSH1 0x40 MLOAD PUSH2 0x2ED SWAP3 SWAP2 SWAP1 PUSH2 0x61E JUMP JUMPDEST PUSH1 0x40 MLOAD DUP1 SWAP2 SUB SWAP1 LOG1 POP JUMPDEST POP JUMP JUMPDEST PUSH2 0x302 PUSH2 0x37E JUMP JUMPDEST PUSH1 0x0 PUSH20 0xFFFFFFFFFFFFFFFFFFFFFFFFFFFFFFFFFFFFFFFF AND DUP2 PUSH20 0xFFFFFFFFFFFFFFFFFFFFFFFFFFFFFFFFFFFFFFFF AND EQ ISZERO PUSH2 0x372 JUMPI PUSH1 0x40 MLOAD PUSH32 0x8C379A000000000000000000000000000000000000000000000000000000000 DUP2 MSTORE PUSH1 0x4 ADD PUSH2 0x369 SWAP1 PUSH2 0x5C3 JUMP JUMPDEST PUSH1 0x40 MLOAD DUP1 SWAP2 SUB SWAP1 REVERT JUMPDEST PUSH2 0x37B DUP2 PUSH2 0x3FC JUMP JUMPDEST POP JUMP JUMPDEST PUSH2 0x386 PUSH2 0x4C0 JUMP JUMPDEST PUSH20 0xFFFFFFFFFFFFFFFFFFFFFFFFFFFFFFFFFFFFFFFF AND PUSH2 0x3A4 PUSH2 0x1A3 JUMP JUMPDEST PUSH20 0xFFFFFFFFFFFFFFFFFFFFFFFFFFFFFFFFFFFFFFFF AND EQ PUSH2 0x3FA JUMPI PUSH1 0x40 MLOAD PUSH32 0x8C379A000000000000000000000000000000000000000000000000000000000 DUP2 MSTORE PUSH1 0x4 ADD PUSH2 0x3F1 SWAP1 PUSH2 0x5E3 JUMP JUMPDEST PUSH1 0x40 MLOAD DUP1 SWAP2 SUB SWAP1 REVERT JUMPDEST JUMP JUMPDEST PUSH1 0x0 DUP1 PUSH1 0x0 SWAP1 SLOAD SWAP1 PUSH2 0x100 EXP SWAP1 DIV PUSH20 0xFFFFFFFFFFFFFFFFFFFFFFFFFFFFFFFFFFFFFFFF AND SWAP1 POP DUP2 PUSH1 0x0 DUP1 PUSH2 0x100 EXP DUP2 SLOAD DUP2 PUSH20 0xFFFFFFFFFFFFFFFFFFFFFFFFFFFFFFFFFFFFFFFF MUL NOT AND SWAP1 DUP4 PUSH20 0xFFFFFFFFFFFFFFFFFFFFFFFFFFFFFFFFFFFFFFFF AND MUL OR SWAP1 SSTORE POP DUP2 PUSH20 0xFFFFFFFFFFFFFFFFFFFFFFFFFFFFFFFFFFFFFFFF AND DUP2 PUSH20 0xFFFFFFFFFFFFFFFFFFFFFFFFFFFFFFFFFFFFFFFF AND PUSH32 0x8BE0079C531659141344CD1FD0A4F28419497F9722A3DAAFE3B4186F6B6457E0 PUSH1 0x40 MLOAD PUSH1 0x40 MLOAD DUP1 SWAP2 SUB SWAP1 LOG3 POP POP JUMP JUMPDEST PUSH1 0x0 CALLER SWAP1 POP SWAP1 JUMP JUMPDEST PUSH1 0x0 DUP2 CALLDATALOAD SWAP1 POP PUSH2 0x4D7 DUP2 PUSH2 0x710 JUMP JUMPDEST SWAP3 SWAP2 POP POP JUMP JUMPDEST PUSH1 0x0 DUP2 CALLDATALOAD SWAP1 POP PUSH2 0x4EC DUP2 PUSH2 0x727 JUMP JUMPDEST SWAP3 SWAP2 POP POP JUMP JUMPDEST PUSH1 0x0 PUSH1 0x20 DUP3 DUP5 SUB SLT ISZERO PUSH2 0x504 JUMPI PUSH1 0x0 DUP1 REVERT JUMPDEST PUSH1 0x0 PUSH2 0x512 DUP5 DUP3 DUP6 ADD PUSH2 0x4C8 JUMP JUMPDEST SWAP2 POP POP SWAP3 SWAP2 POP POP JUMP JUMPDEST PUSH1 0x0 PUSH1 0x20 DUP3 DUP5 SUB SLT ISZERO PUSH2 0x52D JUMPI PUSH1 0x0 DUP1 REVERT JUMPDEST PUSH1 0x0 PUSH2 0x53B DUP5 DUP3 DUP6 ADD PUSH2 0x4DD JUMP JUMPDEST SWAP2 POP POP SWAP3 SWAP2 POP POP JUMP JUMPDEST PUSH2 0x54D DUP2 PUSH2 0x658 JUMP JUMPDEST DUP3 MSTORE POP POP JUMP JUMPDEST PUSH1 0x0 PUSH2 0x560 PUSH1 0x26 DUP4 PUSH2 0x647 JUMP JUMPDEST SWAP2 POP PUSH2 0x56B DUP3 PUSH2 0x698 JUMP JUMPDEST PUSH1 0x40 DUP3 ADD SWAP1 POP SWAP2 SWAP1 POP JUMP JUMPDEST PUSH1 0x0 PUSH2 0x583 PUSH1 0x20 DUP4 PUSH2 0x647 JUMP JUMPDEST SWAP2 POP PUSH2 0x58E DUP3 PUSH2 0x6E7 JUMP JUMPDEST PUSH1 0x20 DUP3 ADD SWAP1 POP SWAP2 SWAP1 POP JUMP JUMPDEST PUSH2 0x5A2 DUP2 PUSH2 0x66A JUMP JUMPDEST DUP3 MSTORE POP POP JUMP JUMPDEST PUSH1 0x0 PUSH1 0x20 DUP3 ADD SWAP1 POP PUSH2 0x5BD PUSH1 0x0 DUP4 ADD DUP5 PUSH2 0x544 JUMP JUMPDEST SWAP3 SWAP2 POP POP JUMP JUMPDEST PUSH1 0x0 PUSH1 0x20 DUP3 ADD SWAP1 POP DUP2 DUP2 SUB PUSH1 0x0 DUP4 ADD MSTORE PUSH2 0x5DC DUP2 PUSH2 0x553 JUMP JUMPDEST SWAP1 POP SWAP2 SWAP1 POP JUMP JUMPDEST PUSH1 0x0 PUSH1 0x20 DUP3 ADD SWAP1 POP DUP2 DUP2 SUB PUSH1 0x0 DUP4 ADD MSTORE PUSH2 0x5FC DUP2 PUSH2 0x576 JUMP JUMPDEST SWAP1 POP SWAP2 SWAP1 POP JUMP JUMPDEST PUSH1 0x0 PUSH1 0x20 DUP3 ADD SWAP1 POP PUSH2 0x618 PUSH1 0x0 DUP4 ADD DUP5 PUSH2 0x599 JUMP JUMPDEST SWAP3 SWAP2 POP POP JUMP JUMPDEST PUSH1 0x0 PUSH1 0x40 DUP3 ADD SWAP1 POP PUSH2 0x633 PUSH1 0x0 DUP4 ADD DUP6 PUSH2 0x599 JUMP JUMPDEST PUSH2 0x640 PUSH1 0x20 DUP4 ADD DUP5 PUSH2 0x599 JUMP JUMPDEST SWAP4 SWAP3 POP POP POP JUMP JUMPDEST PUSH1 0x0 DUP3 DUP3 MSTORE PUSH1 0x20 DUP3 ADD SWAP1 POP SWAP3 SWAP2 POP POP JUMP JUMPDEST PUSH1 0x0 PUSH2 0x663 DUP3 PUSH2 0x678 JUMP JUMPDEST SWAP1 POP SWAP2 SWAP1 POP JUMP JUMPDEST PUSH1 0x0 PUSH2 0xFFFF DUP3 AND SWAP1 POP SWAP2 SWAP1 POP JUMP JUMPDEST PUSH1 0x0 PUSH20 0xFFFFFFFFFFFFFFFFFFFFFFFFFFFFFFFFFFFFFFFF DUP3 AND SWAP1 POP SWAP2 SWAP1 POP JUMP JUMPDEST PUSH32 0x4F776E61626C653A206E6577206F776E657220697320746865207A65726F2061 PUSH1 0x0 DUP3 ADD MSTORE PUSH32 0x6464726573730000000000000000000000000000000000000000000000000000 PUSH1 0x20 DUP3 ADD MSTORE POP JUMP JUMPDEST PUSH32 0x4F776E61626C653A2063616C6C6572206973206E6F7420746865206F776E6572 PUSH1 0x0 DUP3 ADD MSTORE POP JUMP JUMPDEST PUSH2 0x719 DUP2 PUSH2 0x658 JUMP JUMPDEST DUP2 EQ PUSH2 0x724 JUMPI PUSH1 0x0 DUP1 REVERT JUMPDEST POP JUMP JUMPDEST PUSH2 0x730 DUP2 PUSH2 0x66A JUMP JUMPDEST DUP2 EQ PUSH2 0x73B JUMPI PUSH1 0x0 DUP1 REVERT JUMPDEST POP JUMP INVALID LOG2 PUSH5 0x6970667358 0x22 SLT KECCAK256 0xC9 0x26 0xAE 0xD CALL SLOAD SWAP10 SIGNEXTEND 0x2D DUP13 0xD CALLER 0xEF NUMBER 0xE2 0xB7 ADDRESS PUSH5 0x82A00852E9 0xFC PUSH15 0x4E65F4F33D2DB664736F6C63430008 MUL STOP CALLER "
				},
				"gasEstimates": {
					"creation": {
						"codeDepositCost": "381600",
						"executionCost": "infinite",
						"totalCost": "infinite"
					},
					"external": {
						"AconomyOwnerAddress()": "1281",
						"_AconomyFee()": "1221",
						"getAconomyOwnerAddress()": "1223",
						"owner()": "1267",
						"protocolFee()": "1251",
						"renounceOwnership()": "24421",
						"setProtocolFee(uint16)": "infinite",
						"transferOwnership(address)": "24813"
					}
				},
				"methodIdentifiers": {
					"AconomyOwnerAddress()": "951f9c5b",
					"_AconomyFee()": "9a3d4ae6",
					"getAconomyOwnerAddress()": "4dd9ccb1",
					"owner()": "8da5cb5b",
					"protocolFee()": "b0e21e8a",
					"renounceOwnership()": "715018a6",
					"setProtocolFee(uint16)": "e4467f35",
					"transferOwnership(address)": "f2fde38b"
				}
			},
			"storageLayout": {
				"storage": [
					{
						"astId": 7,
						"contract": "contracts/AconomyFee.sol:AconomyFee",
						"label": "_owner",
						"offset": 0,
						"slot": "0",
						"type": "t_address"
					},
					{
						"astId": 141,
						"contract": "contracts/AconomyFee.sol:AconomyFee",
						"label": "_AconomyFee",
						"offset": 20,
						"slot": "0",
						"type": "t_uint16"
					},
					{
						"astId": 143,
						"contract": "contracts/AconomyFee.sol:AconomyFee",
						"label": "AconomyOwnerAddress",
						"offset": 0,
						"slot": "1",
						"type": "t_address"
					}
				],
				"types": {
					"t_address": {
						"encoding": "inplace",
						"label": "address",
						"numberOfBytes": "20"
					},
					"t_uint16": {
						"encoding": "inplace",
						"label": "uint16",
						"numberOfBytes": "2"
					}
				}
			},
			"userdoc": {
				"kind": "user",
				"methods": {},
				"version": 1
			}
		}
	}
}